:1000000061C000000C94CA2A0C94F12A83C000003D
:1000100081C000007FC000007DC000007BC00000E8
:1000200079C0000077C0000075C0000073C00000F8
:1000300071C000000C9418276DC000006BC0000058
:100040000C94182B67C000000C94372E0C94692E6A
:1000500061C000005FC000005DC000005BC0000028
:1000600059C0000057C00000000000080002010055
:100070000003040700000000000000000102040863
:100080001020408001020408102001020408102002
:10009000040404040404040402020202020203032E
:1000A00003030303000000002300260029000000D2
:1000B0000000250028002B0000000000240027007D
:1000C0002A008E2E11241FBECFEFD8E0DEBFCDBF99
:1000D00012E0A0E0B1E0E0EAFEE502C005900D927A
:1000E000A032B107D9F726E0A0E2B2E001C01D922C
:1000F000AB36B207E1F710E0C2E6D0E004C02197CA
:10010000FE010E941F2FC136D107C9F70E940028A7
:100110000C944E2F75CF611102C00C947C2C613071
:10012000E1F362E0FACF662319F061E00C94B82C99
:1001300060E0FCCFCF93DF93EC0170E060E06C17E0
:100140007D070CF5072E000C880B990B0E943F29A8
:1001500020E030E0A9010E94912820E030E0A901D0
:100160000E94912820E030E040E450E40E94912871
:1001700020E030E040E450E40E9490280E940C29E6
:100180006F5F7F4FDCCFDF91CF910895CF93DF93E7
:1001900080913002909131020E94E52CEC01809117
:1001A000360290913702C6DF80913202909133027D
:1001B0000E94E52C019771F48091340290913502F0
:1001C000219771F401969093350280933402DF9168
:1001D000CF9108958091340290913502CD2B91F307
:1001E0000197F1CFCF93DF9380912802909129025C
:1001F0000E94E52CEC0180912E0290912F029ADF53
:1002000080912A0290912B020E94E52C019771F4B3
:1002100080912C0290912D02219771F40196909378
:100220002D0280932C02DF91CF91089580912C02B2
:1002300090912D02CD2B91F30197F1CFCF93DF93C6
:1002400080912002909121020E94E52CEC01809186
:100250002602909127026EDF809122029091230264
:100260000E94E52C019771F480912402909125025F
:10027000219771F401969093250280932402DF91D7
:10028000CF9108958091240290912502CD2B91F376
:100290000197F1CFCF93DF9380912A0290912B02A7
:1002A0000E94E52CEC0180912E0290912F0242DFFA
:1002B00080912802909129020E94E52C019771F407
:1002C00080912C0290912D02CD2B71F40196909388
:1002D0002D0280932C02DF91CF91089580912C0202
:1002E00090912D02219791F30197F1CFCF93DF9356
:1002F00080912202909123020E94E52CEC018091D2
:1003000026029091270216DF80912002909121020F
:100310000E94E52C019771F48091240290912502AE
:10032000CD2B71F401969093250280932402DF91E6
:10033000CF9108958091240290912502219791F305
:100340000197F1CFCF93DF938091320290913302E6
:100350000E94E52CEC018091360290913702EADE92
:1003600080913002909131020E94E52C019771F446
:100370008091340290913502CD2B71F401969093C7
:10038000350280933402DF91CF9108958091340239
:1003900090913502219791F30197F1CF0F931F931D
:1003A000CF93DF938C01EC0183E0CC0FDD1F8A95A6
:1003B000E1F7C05EDD4F798368835B834A83888180
:1003C000998160E00E947C2C8A819B8160E00E9480
:1003D0007C2C8881998161E00E94B82C8A819B8164
:1003E00061E00E94B82C01301105D9F102301105ED
:1003F00009F466C0012B09F092C08091200290910F
:10040000210202978431910530F589599E4FFC01F4
:100410008081082E000C990B41E050E066E771E006
:100420000E94AA2A8091220290912302029784318D
:100430009105A0F489599E4FFC018081082E000C83
:10044000990B41E050E06EE171E0DF91CF911F9197
:100450000F910C94AA2A8FEF9FEFDECF8FEF9FEFC3
:10046000F0CF809128029091290202978431910562
:1004700008F589599E4FFC018081082E000C990BCC
:1004800041E050E06AE471E00E94AA2A80912A02C9
:1004900090912B0202978431910578F489599E4FEF
:1004A000FC018081082E000C990B41E050E062EFC6
:1004B00070E0CBCF8FEF9FEFE3CF8FEF9FEFF5CFC4
:1004C000809130029091310202978431910508F5B4
:1004D00089599E4FFC018081082E000C990B41E048
:1004E00050E062EA71E00E94AA2A80913202909163
:1004F000330202978431910578F489599E4FFC01AB
:100500008081082E000C990B41E050E066EC70E011
:100510009CCF8FEF9FEFE3CF8FEF9FEFF5CFDF9172
:10052000CF911F910F91089523E0880F991F2A956D
:10053000E1F7FC01E05EFD4F848195810895CF9243
:10054000DF92EF92FF92CF93882351F16A017B01F2
:10055000CFEFC80F20E030E0A901CB01B6010E9427
:10056000082987FF11C0C701B60190580E941129C0
:100570009B01AC016C2F70E090E080E0CF91FF9088
:10058000EF90DF90CF90B2C0C701B6010E940C2956
:100590008C2FCF91FF90EF90DF90CF900C94F82BA1
:1005A000CF91FF90EF90DF90CF9008950F931F931E
:1005B0008B019C0183E036952795179507958A95C1
:1005C000D1F7085C1D4F462F477021E030E0F9015C
:1005D00002C0EE0FFF1F4A95E2F7AF01F80120813C
:1005E0002423CB010196211102C090E080E01F91ED
:1005F0000F9108950F931F938B019C0183E0369513
:100600002795179507958A95D1F7677081E090E057
:1006100001C0880F6A95EAF7F801E85CFD4F208178
:10062000452B31F48095822380831F910F9108958B
:10063000822BFACF2F923F924F925F926F927F92CE
:100640008F929F92AF92BF92CF92DF92EF92FF92E2
:100650000F931F93CF93DF93D62EC72E782E692E3C
:1006600049015A01280161E08D2D0E947C2CCD2D7D
:10067000DC2D8E010F5F1F4FA8016D2D7C2D872D66
:10068000962DB8DF20E030E0A901C201B7010E9439
:10069000422A181664F4C201B7010E9411292B01E5
:1006A000C501B4010E941129A201CE0123D0C801C5
:1006B000DF91CF911F910F91FF90EF90DF90CF903E
:1006C000BF90AF909F908F907F906F905F904F9072
:1006D0003F902F900895882341F08150682F70E05B
:1006E00090E080E050E040E085CF0895862FB9018A
:1006F0000C94F82B9C01FC01E859FF4FE491E33086
:1007000061F140F4E13011F1E23021F160E0822F3B
:100710000C94B82CE730C1F1E83009F441C0E43062
:10072000A9F7809180008C7F8260809380009091F7
:100730008100907E9061692B6093810050938700C7
:10074000409386008091800080621BC084B58068E1
:1007500084BDDCCF84B58062FBCF809180008C7F2C
:1007600082608093800090918100907E9061692BDF
:1007700060938100509387004093860080918000B1
:10078000806880938000C2CF8091B00080688093A1
:10079000B0008091B100887F682B6093B100B6CF24
:1007A0008091B0008062F3CF90E080E008950F93D5
:1007B0001F93009709F487C06115710509F483C080
:1007C00000913A0110913B0120913C0130913D0193
:1007D0000E3F1F4F2F4F3F4F09F066C04FEF5FEFA7
:1007E000BA0140933A0150933B0160933C017093EE
:1007F0003D0140913A0150913B0160913C01709163
:100800003D01DC011296ED91FC9180819181A281E4
:10081000B3818093470390934803A0934903B09317
:100820004A0384819581A681B78180934303909385
:100830004403A0934503B093460380859185A28528
:10084000B38580933F0390934003A0934103B093FB
:10085000420384859585A685B78580933B03909355
:100860003C03A0933D03B0933E03109237031092D4
:1008700038031092390310923A03DBD68EE39BE0E3
:1008800090934202809341029093440280934302EA
:10089000BFD5009731F421E030E030934C03209332
:1008A0004B031F910F91089500913A0110913B0164
:1008B00020913C0130913D01DB010D931D932D935F
:1008C0003C93139796CF8FEF9FEFEBCF8F929F9232
:1008D000AF92BF92CF92DF92EF92FF921F93CF938E
:1008E000DF934B015C0110914E0382E090E0909306
:1008F0004C0380934B0381149104A104B10441F48F
:1009000080914E03811104C080914D03C1E081119B
:10091000C0E0C12CD12C760180914E03811106C01C
:1009200080914D03811102C0CC23D9F083E090E087
:1009300090934C0380934B03CC2379F1CCE9DFEF08
:10094000111102C00E94A30ECE01DF91CF911F9121
:10095000FF90EF90DF90CF90BF90AF909F908F90DF
:1009600008956AE070E080E090E00E94872B80E1CB
:10097000C80E87E2D81EE11CF11C8FEF881698067E
:10098000A806B80631F0C1E08C149D04AE04BF0483
:1009900008F0C0E080E070D5BFCFD0E0C0E0D0CF9D
:1009A000CF92DF92EF92FF920F931F93CF93DF933B
:1009B0008F3F910511F008F050C020914B0330910A
:1009C0004C032330310539F020914B0330914C0317
:1009D0002130310531F424E030E030934C03209392
:1009E0004B036A017B01EC0182309105A0F011E01C
:1009F000AE01C701B6010BD5AB01BC01CE0111237D
:100A0000F9F0DF91CF911F910F91FF90EF90DF9060
:100A1000CF900C94CC108C01000F111F0F5B1D4F59
:100A2000D8018D919C91892B11F30E94D6100297C9
:100A3000F1F6D801ED91FC91CE010995182FD8CF90
:100A40000E94EE1090E080E0DF91CF911F910F9116
:100A5000FF90EF90DF90CF9008958FEF9FEFF4CF4E
:100A600080E00AC5CF93DF9386E090E090934C033B
:100A700080934B035AD5EC01E1E4F2E084E0DF011E
:100A80001D928A95E9F70E943B0E10924C0310923A
:100A90004B03CE01DF91CF91089580914D030895CE
:100AA00080913603089560933A0170933B018093DF
:100AB0003C0190933D0190E080E00895CF92DF9259
:100AC000EF92FF926B017C019F7720E030E040E8DD
:100AD00059E50E94082987FF2BC020E030E040E064
:100AE0005FE3C701B6010E94422A87FD0EC020E0E5
:100AF00030E040E05FE3C701B6010E949128FF901B
:100B0000EF90DF90CF900C947A2920E030E040E025
:100B10005FEBC701B6010E94422A181684F420E058
:100B200030E0A901C701B6010E94462A6B017C0191
:100B3000C701B601FF90EF90DF90CF90089520E0BD
:100B400030E040E05FE3C701B6010E949028FF90CB
:100B5000EF90DF90CF900C94F528CF92DF92EF9238
:100B6000FF92CF93DF93C0900001D0900101E090FD
:100B70000201F0900301A70196016091290670918E
:100B80002A0680912B0690912C060E940829882322
:100B900041F0C0922906D0922A06E0922B06F092EC
:100BA0002C0681E090E0C0DCBC01990F880B990B0A
:100BB00097FF07C090958095709561957F4F8F4FF7
:100BC0009F4F0E943F2920911801309119014091B7
:100BD0001A0150911B010E94462A20911C0130915C
:100BE0001D0140911E0150911F010E94462A6093F1
:100BF000490670934A0680934B0690934C062091C9
:100C000020013091210140912201509123010E9445
:100C1000422A18161CF481E080930F03C09004014F
:100C2000D0900501E0900601F0900701A701960120
:100C300060911F06709120068091210690912206F6
:100C40000E940829882341F0C0921F06D0922006F6
:100C5000E0922106F092220690E080E065DCBC0183
:100C6000990F880B990B97FF07C090958095709509
:100C700061957F4F8F4F9F4F0E943F292091240104
:100C80003091250140912601509127010E94462A6A
:100C9000209128013091290140912A0150912B0186
:100CA0000E94462A60934D0670934E0680934F062D
:100CB000909350066BE070E080E090E077DCEC0110
:100CC0009093440680934306E0911003F091110342
:100CD00020912C0130912D0140912E0150912F0136
:100CE00060817181828193810E94082987FFCAC037
:100CF000C0903001D0903101E0903201F09033018A
:100D0000E894F7F820E030E04FE753E4C701B6017C
:100D10000E940829181634F4C12CD12C8FE7E82E34
:100D200083E4F82EB701A601CE0109DC80913801D9
:100D3000813009F0B0C06091100170911101809173
:100D4000120190911301BADE6B017C0120E030E0CA
:100D500040E853E40E9408296FEF87FF0EC020E0AF
:100D600030E0A901C701B6010E94422A60E087FD78
:100D700004C0C701B6010E94112988E0D4D980912E
:100D80003901813009F090C060910801709109012A
:100D900080910A0190910B0191DE6B017C0120E0B2
:100DA00030E040E853E40E9408296FEF87FF0EC04F
:100DB00020E030E0A901C701B6010E94422A60E0AC
:100DC00087FD04C0C701B6010E94112987E0ABD995
:100DD0004091FD025091FE026091FF02709100036C
:100DE00090E080E0DDDD40910503509106036091C5
:100DF00007037091080381E090E0D2DD6091FD026D
:100E00007091FE028091FF02909100036F5F7F4F0F
:100E10008F4F9F4F6093FD027093FE028093FF02FD
:100E200090930003C0911003D09111030E943D29BB
:100E30009B01AC0160910103709102038091030357
:100E4000909104030E94462A688379838A839B8356
:100E50008091050390910603A0910703B0910803C8
:100E60000196A11DB11D8093050390930603A093E5
:100E70000703B0930803DF91CF91FF90EF90DF90CD
:100E8000CF900895C0903401D0903501E0903601A4
:100E9000F090370135CF6091140170911501809168
:100EA0001601909117014FCF60910C0170910D01C7
:100EB00080910E0190910F016FCF8F929F92AF9210
:100EC000BF92DF92EF92FF920F931F93CF93DF9326
:100ED00084E090E063D1E5E6F2E08DE093E0978373
:100EE0008683C0E1D3E0D093A602C093A50201E0BF
:100EF00013E0158B048BF093D002E093CF02F583BF
:100F0000E48321E030E0DC012D933C938BE791E01A
:100F10009387828722E133E03983288340E050E0E1
:100F200060E87FEB4093090350930A0360930B033F
:100F300070930C034AE057ED63E27CE3D8014D93D4
:100F40005D936D937C931397CBEED2E08CE99CE795
:100F5000A3EBB1EA88839983AA83BB838BE59BE7E4
:100F6000A4E7B5E58093EF029093F002A093F1021D
:100F7000B093F2028DEB94E8A7E8BBE78093F3020D
:100F80009093F402A093F502B093F6028DE390E8FB
:100F9000AFE9B2E18093F7029093F802A093F902CF
:100FA000B093FA02A9E5B2E0B383A283E5E4F2E0EC
:100FB0001196FC93EE938DE891E091838083938367
:100FC00082839583848397838683918780879387A1
:100FD00082879587848797878687918B808B938B71
:100FE000828B8BEF92E015969C938E9314971396B9
:100FF000DC93CE93129717963C932E931697C9E1E4
:10100000D6E01A8600E011E0F80180819181A2818A
:10101000B381888B998BAA8BBB8B812C912C54012B
:1010200083948B869C86AD86BE8645E050E063E067
:1010300070E081E090E0B2D9DD24D394DF8618829D
:10104000F80184819581A681B7818E839F83A887CB
:10105000B98789829A82AB82BC8244E050E062E028
:1010600070E090E080E09AD9DD821CA28DA29EA261
:10107000AFA2B8A6E12CF12C8701A80197016BE083
:1010800070E080E090E0D6DA9BA78AA7D9A61C8AF8
:101090008D8A9E8AAF8AB88E61E088E03CD8D98E6E
:1010A0001C8E8D8E9E8EAF8EB8A261E087E033D805
:1010B000D9A2DF91CF911F910F91FF90EF90DF9018
:1010C000BF90AF909F908F900895809123068111DB
:1010D00003C081E08093230680911906811103C02B
:1010E00081E08093190680913D0681112AC081E03C
:1010F00080933D0680913E0690913F06A091400668
:10110000B09141060197A105B105D9F4809142063D
:101110008823B9F06BE070E080E090E047DA9093CC
:1011200044068093430640E050E0BA0108DA6BE0E1
:1011300070E080E090E03ADA9093440680934306B2
:10114000CADA80912D06811103C081E080932D06BB
:1011500080913506811103C081E0809335060895A2
:1011600060E070E080E89FE7089560E070E080E86C
:101170009FE7089560E070E080E89FEF089560E0E9
:1011800070E080E89FEF089560E070E080EC9FEFF2
:10119000089560E070E080EC9FEF0895F5DF6093C4
:1011A0005D0670935E0680935F0690936006F1DFA4
:1011B00060935106709352068093530690935406A1
:1011C000CFDF6093590670935A0680935B06909325
:1011D0005C06CBDF609355067093560680935706E6
:1011E00090935806C7DF6093610670936206809300
:1011F000630690936406C3DF60936506709366068A
:10120000809367069093680608954F925F926F925D
:101210007F928F929F92AF92BF92CF92DF92EF9286
:10122000FF920F931F93F89440902603509027034A
:101230006090280370902903C0901A03D0901B037C
:10124000E0901C03F0901D034130510509F0A4C04B
:101250009B01AC01241935094609570929013A01B6
:101260000091220310912303209124033091250340
:1012700048015901840C951CA61CB71C80169106C8
:10128000A206B306A0F400911E0310911F03209143
:101290002003309121030F5F1F4F2F4F3F4F0093CB
:1012A0001E0310931F032093200330932103809289
:1012B000220390922303A0922403B092250300916D
:1012C0001E0310911F03209120033091210380926F
:1012D0002A0390922B03A0922C03B0922D0300932B
:1012E0002E0310932F032093300330933103609328
:1012F0002603709327038093280390932903A0E18A
:10130000B7E2A30192010E94252F6C0D7D1D8E1D59
:101310009F1D60931A0370931B0380931C0390938B
:101320001D0300913A0110913B0120913C01309145
:101330003D010F3F1F4F2F4F3F4FF1F000913A01FA
:1013400010913B0120913C0130913D010E3F1F4F18
:101350002F4F3F4F89F0C0903A01D0903B01E09071
:101360003C01F0903D0121E08C149D04AE04BF04CB
:1013700008F420E02093360378941F910F91FF909A
:10138000EF90DF90CF90BF90AF909F908F907F9025
:101390006F905F904F9008954B015C018418950801
:1013A000A608B708A3019201261B370B480B590B5F
:1013B0006415750586059705D0F082169306A40678
:1013C000B50640F420E030E0A90181149104A104A5
:1013D000B10491F4A0E1B7E20E94252FA701960184
:1013E000261B370B480B590BCA01B901C5CF821612
:1013F0009306A406B50670F7A0E1B7E2A501940133
:101400000E94252F6C0D7D1D8E1D9F1DB5CFFDCE1D
:10141000CF93DF9300D000D0CDB7DEB71C821B8204
:101420001A821982109232031092330310923403FD
:1014300010923503BE016F5F7F4FCE0103960E946D
:10144000FC2669817A818B819C810E94EE1F009726
:1014500061F4BE016F5F7F4FCE0103960E940827A3
:1014600069817A818B819C812DD50F900F900F908F
:101470000F90DF91CF910895FF920F931F93CF9319
:10148000DF93082F60E070E0CB010E94872BFF24E0
:10149000F3940E94D91EEC01892B89F010E0CE3F15
:1014A0008FEFD80769F0002361F160E070E0CB01B5
:1014B0000E94872B81E090E0892B59F322C011E034
:1014C00024D5EC01892B21F0CE3F8FEFD80759F7B7
:1014D00011111EC011E0229609F410E00E948A1E2C
:1014E000EC01892B21F0CE3F8FEFD807E1F61111E7
:1014F00011C011E0CE3F8FEFD80709F410E00111C1
:101500000BC0CE01DF91CF911F910F91FF900895F5
:1015100011E0E4CF11E0F3CF60E070E0CB010E9476
:10152000872B1F25812F90E0C7CFCF93DF9380912A
:101530003603882321F060E070E0CB014DD636D62B
:10154000D0E0C0E0892B71F06AE070E080E090E0CC
:101550000E94872B81E090DF29D62196C03D27E0AD
:10156000D20781F728D60E94422010924E03109293
:101570004D031092470310924803109249031092B2
:101580004A031092430310924403109245031092B1
:10159000460310923F0310924003109241031092B1
:1015A000420310923B0310923C0310923D031092B1
:1015B0003E031092370310923803109239031092B1
:1015C0003A034EEF5FEF6FEF7FEF40933A01509396
:1015D0003B0160933C0170933D0110923603EAE2B7
:1015E000F3E028E0DF011D922A95E9F71092260327
:1015F00010922703109228031092290310922203BD
:1016000010922303109224031092250310921E03BC
:1016100010921F03109220031092210310921A03BC
:1016200010921B0310921C0310921D03DF91CF91A7
:10163000089510925A0310925B0310925C0310926B
:101640005D0310925903809162039091630390931C
:10165000580380935703109256031092550310922B
:10166000510310925203109253031092540310929C
:101670005F0310925E0390E080E00895CF92DF92C6
:10168000EF92FF920F931F93CF938C01019709F074
:1016900055C020916203309163038091570390916C
:1016A0005803409162035091630350935803409351
:1016B00057032817390781F01092560310925503EB
:1016C000109251031092520310925303109254033C
:1016D00010925F0310925E03809162039091630306
:1016E000019761F580915E0390915F03892B21F44E
:1016F00080913E01811112C080915E0390915F0341
:101700000197E1F48091510390915203A09153030A
:10171000B09154030197A105B10581F410925103D2
:1017200010925203109253031092540310923E01F0
:1017300082E090E090935F0380935E038091620368
:1017400090916303019709F01CC1809178039091F7
:1017500079038017910709F014C180917403909167
:101760007503A0917603B0917703009709F409C13E
:101770002091730321110DC04091740350917503A2
:101780006091760370917703452B462B472B09F424
:10179000F8C020915E0330915F032230310509F0DB
:1017A000F0C0209155032111ECC0FC01C080D18014
:1017B000E280F38080915903882309F4D3C080919B
:1017C000650390916603892B09F4FEC0209165039F
:1017D0003091660381E02230310509F080E02091EC
:1017E000650330916603C1E02130310549F0209155
:1017F000650330916603C1E02230310509F0C0E095
:10180000882309F456C020916F03309170034091F2
:10181000710350917203C701B6010E94422A87FDED
:1018200014C020916F033091700340917103509167
:10183000720360915A0370915B0380915C039091F5
:101840005D030E94082987FD22C020916F0330911B
:1018500070034091710350917203C701B6010E9459
:10186000422A181634F520916F033091700340918D
:1018700071035091720360915A0370915B038091E0
:101880005C0390915D030E940829811112C0809130
:10189000670390916803A0916903B0916A03892B53
:1018A0008A2B8B2B19F481E08093560381E080937F
:1018B0005503CC2309F456C020916F033091700377
:1018C0004091710350917203C701B6010E9408292B
:1018D00087FF14C020916F03309170034091710312
:1018E0005091720360915A0370915B0380915C0385
:1018F00090915D030E94422A87FF22C020916F03CE
:10190000309170034091710350917203C701B60189
:101910000E940829811126C020916F033091700325
:10192000409171035091720360915A0370915B036F
:1019300080915C0390915D030E94422A181694F4F2
:101940008091670390916803A0916903B0916A0345
:10195000892B8A2B8B2B19F481E08093560381E02D
:101960008093550381E090915503911180E080931D
:101970005903C0925A03D0925B03E0925C03F09249
:101980005D030130110509F067C180915E039091FC
:101990005F03892BD9F41092640310925503809150
:1019A0003E01882379F082E090E090935F0380937A
:1019B0005E0310923E01209162033091630381E047
:1019C000232BE9F080E01BC081E009CF10923E019B
:1019D00080916403882349F01092560310925F03AC
:1019E00010925E0310926403EDCF80916203909198
:1019F0006303892BE1F080915503109255032091E8
:101A00005E0330915F032230310509F45EC088F433
:101A10002115310509F448C02130310509F4F3C01E
:101A200010925603109255031092640338C081E05F
:101A3000E6CF2330310509F4B1C02430310581F7F8
:101A4000409151035091520360915303709154039C
:101A5000411551056105710561F041505109610958
:101A60007109409351035093520360935303709351
:101A7000540340915103509152036091530370916C
:101A80005403452B462B472BD9F42091600330910A
:101A900061032130310509F046C0109256031092BF
:101AA0005F0310925E030CC080913E01882341F0D9
:101AB00082E090E090935F0380935E0310923E017A
:101AC00010924F0380915603CEC08823C9F38091B2
:101AD000670390916803A0916903B0916A03181697
:101AE00019061A061B060CF07DC0809162039091C6
:101AF0006303019709F076C08091670390916803B2
:101B0000A0916903B0916A038093510390935203AB
:101B1000A0935303B093540383E090E090935F034A
:101B200080935E03CDCF40916B0350916C03609125
:101B30006D0370916E03452B462B472BA9F0109235
:101B4000560380916B0390916C03A0916D03B0914B
:101B50006E038093510390935203A0935303B09369
:101B6000540381E090E0DACF882399F080913F011F
:101B700090914001A0914101B091420180935103A5
:101B800090935203A0935303B093540384E090E0E6
:101B9000C5CF1092560382E090E0C0CF80915103F0
:101BA00090915203A0915303B09154030097A10563
:101BB000B10559F00197A109B109809351039093A0
:101BC0005203A0935303B093540380915103909117
:101BD0005203A0915303B0915403892B8A2B8B2B72
:101BE00009F06ECF80913F0190914001A091410199
:101BF000B0914201892B8A2B8B2B09F44ECF81E0C7
:101C000080935603B3CF409151035091520360919A
:101C1000530370915403411551056105710561F03D
:101C20004150510961097109409351035093520386
:101C300060935303709354034091510350915203A6
:101C40006091530370915403452B462B472B09F0A9
:101C500037CF8111C7CF9FCF80914F03882309F4DD
:101C600031CF80915003CF911F910F91FF90EF9052
:101C7000DF90CF90089510925A0310925B03109258
:101C80005C0310925D031092590310925F0310924F
:101C90005E0310925803109257031092790310922A
:101CA000780310925603109255031092510310922C
:101CB0005203109253031092540310925003109247
:101CC0004F031092740310927503109276031092D2
:101CD00077031092730310926F03109270031092A7
:101CE00071031092720388EE93E0A0E0B0E080935D
:101CF0003F0190934001A0934101B09342011092A3
:101D00006B0310926C0310926D0310926E0310928D
:101D10006703109268031092690310926A0310928D
:101D200066031092650381E080933E011092640384
:101D30001092630310926203109261031092600389
:101D400090E080E008958091620390916303892B75
:101D500019F580913E01882351F08091640381112F
:101D600006C081E08093500380934F030895209133
:101D7000640330913E0181E090E0332311F090E064
:101D800080E030E082239323892B21F010925003CE
:101D900081E0EACF10924F03089582E090E0FA01CB
:101DA000918380838FEF9FEF0895CF93DF93EA01B4
:101DB000009711F00E9462211982188290E080E061
:101DC000DF91CF910895DB01009719F48FEF8C9389
:101DD00008952EEF2C930F968F30910508F033C0A5
:101DE000FC01EB50F14F0C941F2F210F1F0F1D0F03
:101DF0001B0F190F150F170F130F110F0F0F0C0FCC
:101E0000080F040F0A0F230F80E311968C93089597
:101E100089E2FBCF82E2F9CF11961C92089583E20A
:101E2000F4CF81E2F2CF81E1F0CF87E2EECF8AE218
:101E3000ECCF80E1EACF84E2E8CF88E2E6CF86E229
:101E4000E4CF81E3E2CF80E2E0CF809186039091FE
:101E50008703089590938703809386030895809164
:101E60008503089590918503892B809385030895B8
:101E7000982F9095809185038923809385030895F9
:101E80008091840308958091820390918303089543
:101E90006115710559F0FB0130E020E070E060E071
:101EA0002417350719F06115710511F0CB0108955C
:101EB000A081B181A817B90709F4BF012F5F3F4F77
:101EC0003696EECF8091880381111CC062D268D211
:101ED00090937B0380937A030E9464190E94761981
:101EE00090937F0380937E030E94F41D0E94FB1D4C
:101EF00090937D0380937C0381E08093880390E03E
:101F000080E0089584EF9FEF08958F929F92AF92A3
:101F1000BF92CF92DF92EF92FF920F931F93CF93D6
:101F2000DF93CDB7DEB72A970FB6F894DEBF0FBEAA
:101F3000CDBF1A86198618861F821E821D821C82BA
:101F40001B821A8219828091880307EF1FEF882372
:101F500009F49CC08E010D5F1F4F9E012B5F3F4F08
:101F6000AE01495F5F4FBE01675F7F4F90E080E049
:101F70000E94741F8C01009721F00596029708F0CB
:101F8000DBC029853A852115310509F402C1ED80B0
:101F9000FE804B815C81B701640F751F8F8198852E
:101FA0008617970708F4F5C0E20EF31ED7019C913F
:101FB000903C09F07FC04230510508F47BC0119677
:101FC0008C914091860350918703452B09F49CC066
:101FD000913F08F071C02CE1290F2D3008F48BC01F
:101FE0002DE2290F203108F489C0903C21F4815062
:101FF000823008F483C088E3890F8B3008F481C0F5
:1020000093EEC92E9EE0D92EEDECFEE06D817E812F
:10201000AE014F5F5F4F89859A8509955C01C114B8
:10202000D104A1F189809A808114910479F18B8186
:102030009C818815990508F487C010E000E04B8169
:102040005C8170E060E0C7010E94472F0115110517
:10205000E9F449815A8169857A858D819E81680F6D
:10206000791FC501F6010995E980FA800D811E816D
:102070002F81388549855A856FEF7FEF81E090E0A9
:102080000E94101F8C01892B09F056C0C8012A96A6
:102090000FB6F894DEBF0FBECDBFDF91CF911F9179
:1020A0000F91FF90EF90DF90CF90BF90AF909F90F7
:1020B0008F90089580E085CF30E020E0220F331F1D
:1020C000F901E658FC4F0190F081E02D309709F4BA
:1020D00097CF892F90E00995009709F491CFDC0103
:1020E0001296ED91FC9113971496CD90DC90309759
:1020F00009F08CCF1FC021E030E0E0CF22E030E0DB
:10210000DDCF23E030E0DACFD12CC12CE5EDFEE0CD
:102110009F3F09F07BCFE0917A03F0917B033097EA
:1021200021F4C90104EF1FEF0CC08FEF90E0099577
:102130000097A9F604EF1FEF89859A85009709F4A7
:10214000A5CF0E946221A2CF0E943D208C018985EB
:102150009A850E94622170E060E0C4010E94D61F4F
:1021600098878F830E940D1F9E838D836F81788552
:102170006115710559F0C8010E94EE229A8789877E
:1021800006EF1FEF892B09F058CF59CF08EF1FEF4B
:1021900056CF08EF1FEFD0CF20918803222319F0EC
:1021A00020E00C947B1987EF9FEF089580918603C0
:1021B0009091870308950E94001E0E945A1DF5D039
:1021C000EAE7F3E088E0DF011D928A95E9F71092D3
:1021D000880390E080E008950C94B71B21E040E074
:1021E00050E0BA010C947B1986E090E0FA019183EB
:1021F000808390E080E0089547E050E060E971E07E
:1022000047CEDF92EF92FF920F931F93CF93DF930E
:102210008A01EC01C60FD71FE0908C03F0908D036C
:10222000D9800E942520D816190678F082E090E027
:10223000F801918380838EEF9FEFDF91CF911F9103
:102240000F91FF90EF90DF900895EF2841F482E026
:1022500090E0F8019183808384EF9FEFEECF898136
:1022600080938B0390E00196F8019183808390E046
:1022700080E0E3CFCF93DF93EA010E94681C8823BC
:1022800021F00E9432200E94691C82E090E0998334
:1022900088838BEF9FEFDF91CF910895CF93DF93EA
:1022A000EB0186E0FB0111928A95E9F78FEF8883B5
:1022B000D6DD8983E5DD8A83E6DD9D838C83DF912E
:1022C000CF910895CF93DF93EA010E946B1C811197
:1022D00009C082E090E09983888385EF9FEFDF91CA
:1022E000CF91089590E080E0B5DD81E090E09983A2
:1022F000888390E080E0F3CF0F931F93CF93DF9319
:10230000EA018C01060F171F0E946B1C81110BC084
:1023100082E090E09983888385EF9FEFDF91CF91F2
:102320001F910F910895F8018181823038F082E089
:1023300090E0998388838EEF9FEFF0CF81E090E06B
:1023400089DD88E090E09983888390E080E0E6CFA3
:10235000CF93DF930097D1F4EB01FB01329686E037
:10236000DF011D928A95E9F78FEF888385E08983E5
:102370001A820E9425208B830E9424209D838C83B7
:1023800081E08E838F83DF91CF910895DF91CF918C
:102390001ACD8CEF90E190938A038093890308957E
:1023A0008091890390918A03089510928A03109274
:1023B0008903089580918C0390918D0308954111B4
:1023C00005C0611571058105910561F060938C036D
:1023D00070938D0380938E0390938F0340939003AB
:1023E00081E0089580E00895FF920F931F93CF93AB
:1023F000DF938A01EC01C60FD71FF9800E942520C8
:10240000F816190668F082E090E0F8019183808365
:102410008EEF9FEFDF91CF911F910F91FF90089565
:102420006C817D818E819F814B81C9DF811108C0C4
:1024300082E090E0F8019183808384EF9FEFEACF00
:10244000898180938B0390E00196F80191838083CA
:1024500090E080E0DFCFCF93DF93EA01FC01E60F4D
:10246000F71F64817581868197814381A8DF81117F
:1024700009C082E090E09983888384EF9FEFDF9129
:10248000CF91089581E090E09983888390E080E087
:10249000F6CFECE8F3E04081518162817381480F0F
:1024A000511D611D711D40835183628373830895A3
:1024B000CF93C0918B034C2F50E060918C037091AF
:1024C0008D0301960E943E2F8C2FE3DF10928B0329
:1024D000CF910895009799F480918C0390918D038A
:1024E0002FEFFB012083892B59F020918B0330E0E3
:1024F0002F5F3F4F2417350719F4CB01D9CF63CC99
:102500000895009799F480918C0390918D032FEF9B
:10251000FB012083892B59F020918B0330E02F5F42
:102520003F4F2417350719F4CB01C2CF4CCC089587
:1025300023E1AC01249FC001259F900D1124E0915F
:102540009503F0919603E80FF91F238134812250FF
:10255000310981E02230310508F080E008950F93C1
:102560001F93CF93DF930091970310919803D0E0CE
:10257000C0E080E00C171D0749F491E0811190E064
:10258000892FDF91CF911F910F9108958111F5CF80
:10259000CE01CEDF2196EECFA0919503B0919603A8
:1025A000109729F120919703309198038217930790
:1025B000F0F453E1589F9001599F300D1124A20F60
:1025C000B31FED91FC911197309789F012968C9181
:1025D000681768F48DE0689FE00DF11D112480817B
:1025E0009181892B21F081E09281491708F080E0E8
:1025F00008959C0143E1429FC001439F900D112427
:10260000E0919503F0919603E80FF91F83858230DE
:1026100091F481E090E06581768140914301509191
:1026200044016417750711F490E080E0892B19F0DC
:1026300081E0232B09F080E00895FC01A081B181A5
:102640008DE0689FA00DB11D112413964D915C91F2
:1026500085859685489F9001499F300D589F300D84
:102660001124C9010196611103C0478144FD0496FC
:102670000895EF92FF920F931F93CF93DF93EA0198
:10268000FC01E60FF71F02811381E480F5804F2DD6
:102690006E2DC80181DF81110DC082E090E0998329
:1026A00088838EEF9FEFDF91CF911F910F91FF9065
:1026B000EF900895C8013CDF882339F082E090E074
:1026C0009983888388EF9FEFEECF10934A010093A0
:1026D0004901E0924B01F0924C0181E090E0998336
:1026E000888390E080E0DFCFCF92DF92EF92FF927D
:1026F0000F931F93CF93DF937A01EC01C60FD71F7F
:10270000C0904901D0904A0100914B0110914C01B9
:10271000412F602FC60140DF811110C082E090E0A0
:10272000F701918380838AEF9FEFDF91CF911F9113
:102730000F91FF90EF90DF90CF900895C601F8DEE3
:10274000882341F082E090E0F7019183808388EF55
:102750009FEFEBCF4C815D816E817F819A81898172
:102760008F3F41F082E090E0F701918380838EEF0C
:102770009FEFDBCFE3E1EC9D9001ED9D300D112447
:10278000E0919503F0919603E20FF31F0190F08121
:10279000E02D2DE0029FE00DF11D11240190F0814C
:1027A000E02D27E0129FE00DF11D1124808391831D
:1027B0008B81828343835483658376831F5F109369
:1027C0004C0181E090E0F7019183808390E080E00C
:1027D000ACCFEF92FF920F931F93CF93DF937A01C9
:1027E0008C01060F171FC0919503D0919603209777
:1027F00081F021E030E0F8018281938140919703DC
:10280000509198038417950710F030E020E0232BB7
:1028100071F482E090E0F701918380838EEF9FEF67
:10282000DF91CF911F910F91FF90EF90089543E1B9
:10283000489F9001499F300D1124C20FD31F78DEAD
:10284000882341F082E090E0F7019183808388EF54
:102850009FEFE6CFF8012481358120383105C8F695
:1028600087818111D6CF4181842F90E08F7E0097A0
:1028700041F082E090E0F7019183808386EF9FEF43
:10288000CFCF4F833E832D83268128871986223020
:1028900010F421E0288721E030E0F7013183208324
:1028A000BFCF88E090E0FA019183808390E080E0E0
:1028B0000895FB018FEF808381E181838FEF9FEF8C
:1028C0009383828380E890E09583848316821782C5
:1028D0000895FB018FEF808391E09183828393833E
:1028E000848384E3858381E090E0978386830895E1
:1028F000DF92EF92FF920F931F93CF93DF93EA0142
:10290000FC01E60FF71F8181813071F082E090E0D9
:10291000998388838FEF9FEFDF91CF911F910F9164
:10292000FF90EF90DF90089582819381D48025817C
:10293000E680F7800091950310919603011511052B
:1029400039F482E090E0998388838CEF9FEFE4CFA5
:1029500040919703509198038417950738F082E0CF
:1029600090E0998388838EEF9FEFD6CF892B39F043
:1029700082E090E09983888386EF9FEFCDCF8D2D05
:102980008D7FB1F72130A1F781E0D11006C091E031
:10299000E916F10431F080E004C0E2E0EE16F10443
:1029A000D0F3882329F390E080E0C2DD882339F05A
:1029B00082E090E09983888388EF9FEFADCFF801A4
:1029C000D38681E08487F686E586108A178681E0C3
:1029D00090E09983888390E080E09ECF4CE050E0C7
:1029E0006AEB71E055CA8F929F92BF92CF92DF92AD
:1029F000EF92FF920F931F93CF93DF93EA01FC01B5
:102A0000E60FF71F828193810481B580E0919503E1
:102A1000F0919603309791F482E090E09983888357
:102A20008CEF9FEFDF91CF911F910F91FF90EF906F
:102A3000DF90CF90BF909F908F9008952091970343
:102A4000309198038217930738F082E090E09983E1
:102A500088838EEF9FEFE6CF23E1289F6001299FB7
:102A6000D00C1124EC0DFD1DE080F180E114F10487
:102A700099F28281081748F78DE0089F80011124A0
:102A8000E00EF11EF70180819181892B29F6BB2090
:102A9000E1F2F7E0BF9E40011124C4010E94292108
:102AA000F70191838083E0919503F0919603EC0DFB
:102AB000FD1D0190F081E02DE00FF11F80819181DB
:102AC000009739F482E090E0998388838DEF9FEF3F
:102AD000A9CFA40170E060E00E94472F8091950388
:102AE00090919603C80ED91EF60180819181080F3E
:102AF000191FF801B28281E090E09983888390E009
:102B000080E090CFAF92BF92CF92DF92FF920F936F
:102B10001F93CF93DF93EA01FC01E60FF71F828139
:102B20009381F4800091950310919603011511058E
:102B300081F482E090E0998388838CEF9FEFDF91AE
:102B4000CF911F910F91FF90DF90CF90BF90AF90EA
:102B5000089520919703309198038217930738F0D6
:102B600082E090E0998388838EEF9FEFE8CF2FEF8C
:102B70002F0D2C3FA8F723E1289F6001299FD00C3F
:102B800011240C0D1D1DF80180819181892B89F67E
:102B9000FDE0FF9E50011124C5010E942921F8018A
:102BA00091838083E0919503F0919603EC0DFD1DD8
:102BB00080819181009739F482E090E09983888345
:102BC0008DEF9FEFBCCFA50170E060E00E94472F22
:102BD000E0919503F0919603EC0DFD1DF28281E0EA
:102BE00090E09983888390E080E0A9CFCF92DF9234
:102BF000EF92FF920F931F93CF93DF93860F971F50
:102C0000FC01028113818091950390919603892B99
:102C100081F082E090E0FA01918380838CEF9FEF56
:102C2000DF91CF911F910F91FF90EF90DF90CF90A8
:102C30000895C801B0E0A0E00197A109B1098F3F54
:102C40009F4FA105B10540F082E090E0FA01918329
:102C500080838EEF9FEFE4CF7A0183E1809F600154
:102C6000819FD00C1124C6010E942921EC010097FC
:102C700041F482E090E0F701918380838DEF9FEF34
:102C8000CFCFA60170E060E00E94472FD09396035B
:102C9000C0939503109398030093970390E080E00E
:102CA0002FEF3FEF41E061E070E08017910741F4C2
:102CB00081E090E0F7019183808390E080E0B0CFE5
:102CC0003A8B298B1B864C877E876D87188A1F86D7
:102CD00001966396EACFEF92FF921F93CF93DF9313
:102CE000EC0110E0F12CE12C6A811617A8F070E0DD
:102CF000660F771FAE014F5E5F4FC7010E948E21A6
:102D0000009721F02FEF3FEF3A8B298BDF91CF9186
:102D10001F91FF90EF900895612FCE018EDC61E04E
:102D200070E00E94D61FE816F90608F47C011F5FC8
:102D3000DBCFF894209193033091940381E0211527
:102D4000310509F080E0232B09F0789408952F9243
:102D50003F924F925F926F927F928F929F92AF922B
:102D6000BF92CF92DF92EF92FF920F931F93CF9378
:102D7000DF933C01660E771EF301828193814C0143
:102D8000B12CA12CC0919503D0919603209769F0A6
:102D900021E030E0609197037091980386179707C0
:102DA00010F030E020E0232BD1F482E090E0FA0133
:102DB000918380838EEF9FEFDF91CF911F910F91D1
:102DC000FF90EF90DF90CF90BF90AF909F908F904B
:102DD0007F906F905F904F903F902F9008958092DA
:102DE0004D0190924E01A0924F01B092500163E1CB
:102DF000689F9001699F300D1124C20FD31FF3010A
:102E00008181833040F082E090E0FA0191838083F9
:102E100086EF9FEFD1CF2A012B813C81232BF1F448
:102E2000288139819F8191FF2EC0232B09F46FC027
:102E300020919A039A81422F490F5527551FBA01B5
:102E400041E050E06138710514F050E040E0452B5E
:102E500009F45DC02A87920F90939A0381508230C3
:102E600008F481C066DF882309F4D8C0F3018181AA
:102E7000813009F48DC008F47BC0823009F4C6C0EB
:102E800090E080E0ADC0232B09F441C0209199036C
:102E90009A81E22FE90FFF27FF1F41E050E0ED3F4D
:102EA000F10514F050E040E0452B89F12A87920F9C
:102EB00090939903D3CFA081B181A20FB31F119634
:102EC0006C91060F111D0196295F3F4F84179507DE
:102ED00094F38D859E85089F1001099F300C189FE3
:102EE000300C1124C114D104D1F48F8184FF17C098
:102EF0000E942420F5E02F0E311C21E0821593055D
:102F000008F420E0A701435F5F4F21110EC082E06B
:102F100090E0F2019183808387EF9FEF4DCF0E9475
:102F200024202FEF221A320AE8CF88819981E80EF7
:102F3000F91EF70114830383FFEFCF1ADF0A7A012A
:102F40008A818C151D0409F00CF48CCFE881F9817D
:102F5000EE0DFF1D428150E030E020E010E000E087
:102F600090E080E0B3CFF12CE12CD12CC12CE8CF44
:102F700081E090E09C838B83F2DA882309F480CF90
:102F800081E090E00E942A0F80E40E94380F78CF01
:102F900089899A89019661F083E090E09C838B8314
:102FA00082E090E00E942A0F80E40E94320F68CFF6
:102FB0008D819E81209143013091440182179307B6
:102FC000D1F46091470170914801AE014F5E5F4FAF
:102FD00080914501909146010E94AD220097E1F257
:102FE000789422E030E0F20131832083892B99F03C
:102FF0008DEF9FEFE1CE89288A288B2869F602970A
:1030000058F6CE0168DE188A1F86E8CF82E090E08D
:103010009C838B8335CF90E080E0CECE82E090E041
:10302000F2019183808385EF9FEFC6CE8F929F92AE
:10303000AF92BF92CF92DF92EF92FF920F931F93C6
:10304000CF93DF93EA018C01060F171FF8018181EE
:10305000833098F082E090E09983888386EF9FEF39
:10306000DF91CF911F910F91FF90EF90DF90CF9064
:10307000BF90AF909F908F9008958091950390910D
:103080009603892B61F081E090E0209197033091C5
:103090009803232B11F490E080E0892B39F482E02F
:1030A00090E0998388838EEF9FEFDACF42DE88230A
:1030B00009F4E0C0F8018181813009F496C0E8F09C
:1030C000823099F42091970330919803E091950311
:1030D000F091960390E080E041E050E02817390736
:1030E00009F0BEC03CDA811117C0789481E090E00D
:1030F0009983888390E080E0B3CF2091970330914B
:103100009803E0919503F091960390E080E041E010
:1031100050E02817390741F481E090E00E942A0F1F
:1031200080E40E94380FE1CF63817481672B11F036
:103130005483438301967396ECCFE0919503F0910D
:103140009603E00FF11F2381348122303105D9F439
:10315000218932892F3F3F4FB1F42581368140913B
:103160004301509144012417350761F5AF014F5ECB
:103170005F4F6091470170914801809145019091A6
:1031800046010E94AD22EFEFCE1ADE0AEE0AFE0AD9
:103190000D5E1F4F409197035091980370E060E0DF
:1031A000C416D506E606F70644F5009731F2789482
:1031B000892B09F49BCF82E090E0998388838DEF7F
:1031C0009FEF4ECFC114D104E104F104E1F62230A7
:1031D0003105C8F6CF017FDDE0919503F0919603AC
:1031E000E00FF11F108A1786CECF10E000E090E0CC
:1031F00080E0C12CD12C7601CDCF0097C1F610E034
:1032000000E0812C912C540183E0E82EF12C1AC0AF
:10321000E0919503F0919603E00FF11F8381948173
:10322000029749F4F482E38282E090E00E942A0F40
:1032300080E40E94320FFFEF8F1A9F0AAF0ABF0A85
:103240000D5E1F4F8091970390919803B0E0A0E02E
:1032500088169906AA06BB06DCF290E080E0A7CFAC
:10326000638174816230710511F454834383019644
:10327000739634CF82E090E09983888385EF9FEF47
:10328000EFCE0097B9F48FEFFB01808320914D01C1
:1032900030914E0143E1429FC001439F900D1124A4
:1032A000E0919503F0919603E80FF91F8285FB01E9
:1032B000818308950C94E30E88E090E0FA019183F5
:1032C000808390E080E0089510929403109293031D
:1032D000E5E9F3E086E0DF011D928A95E9F78EEEDD
:1032E00094E19093920380939103089580919103C8
:1032F0009091920308952F923F924F925F926F9216
:103300007F928F929F92AF92BF92CF92DF92EF9275
:10331000FF920F931F93CF93DF93CDB7DEB72F9715
:103320000FB6F894DEBF0FBECDBFF894E0919303C3
:10333000F09194033196F0939403E093930378947F
:1033400040909503509096034114510409F40CC227
:10335000E0919703F0919803EF2B09F405C22D87B4
:1033600049875A876B877C8798878F831201B12C96
:10337000A12C10E000E08091970390919803A8168B
:10338000B90618F40115110529F1F89480919303F9
:10339000909194030197909394038093930378946E
:1033A000C8012F960FB6F894DEBF0FBECDBFDF91D8
:1033B000CF911F910F91FF90EF90DF90CF90BF9032
:1033C000AF909F908F907F906F905F904F903F90C5
:1033D0002F9008957101E418F508D10117968C918A
:1033E000179781FD54C013968D919C911497039764
:1033F00009F04DC015968D919C91EF81F8858E173F
:103400009F0709F044C0B50190E080E07ED48A8334
:1034100020919503309196033D832C833D85332382
:1034200009F44CC04C815D81452B09F49AC180910F
:10343000970390919803A816B90608F092C1C501A8
:10344000D8D88823E9F06C817D816E0D7F1D7D8346
:103450006C83DB011F968D919C91892B89F0D12C77
:10346000C12CF12CE12CAC81BD8112968C9112976C
:103470008E151F0409F094F450961C921E921F970B
:103480002A81222321F0B50190E080E040D43FEF73
:10349000A31AB30A43E1240E311C6DCFAC81BD8168
:1034A000ED91FC91EC0DFD1D858196810BD7BFEF51
:1034B000EB1AFB0AEDE0CE0ED11CD5CFEC81FD81DD
:1034C000309709F44EC18091970390919803A81604
:1034D000B90608F046C1EE0DFF1DFF87EE87C50156
:1034E00088D88B83882339F1AE85BF851F968D914F
:1034F0009C915097019621E01D964D915C91841707
:10350000950709F020E02E831982712C10E000E06D
:10351000AE85BF8512968C91781608F45DC0EE8555
:10352000FF85878590890196658576850E94E92EBD
:10353000908B8787A5CFB1E0BE83E6CF9924939483
:103540006BC087D6F6019683858382C0D601ED9045
:10355000FC90B7E06B9EE00CF11C1124F701638135
:10356000748180818F3F61F121E030E002C0220F41
:10357000331F8A95E2F7C901092E000CAA0BBB0B79
:10358000FB01408151816281738184239523A623AD
:10359000B72321E0892B8A2B8B2B09F420E0D4015F
:1035A0002C93D70111968C91F60123853485820FD7
:1035B000932F911D880E991E1486138663949BC0C9
:1035C000418150E0C4010E943E2FEBCF998206EF6B
:1035D0001FEFC5C01982C3C0F981F111A0CFEDE082
:1035E0007E9E70011124AE85BF85CD90DC90CE0CFF
:1035F000DF1C13D49D838C83BB81BB2309F49ECF36
:1036000081E0EE85FF8527853089232B09F080E056
:10361000982E882309F458C0672D8E859F850DD874
:10362000D60118969C938E93179761E070E0BED4F4
:10363000EE85FF85218932892F3F320709F481CF3A
:10364000BC01C901CBD7D60116969C938E931597D2
:10365000D60115968D919C911697009709F4B6CFD7
:10366000EC81FD818E0F9F1F1A969C938E93199764
:10367000AE85BF85ED91FC911197EE0EFF1EF7010F
:1036800021853285148613861A968C91870DD9016F
:103690008D93711016C0EE85FF85878184FF11C060
:1036A00049855A856B857C85F90141835283638303
:1036B0007483F701838594850496A80FB91F148637
:1036C0001386F701B287A187D60115968D919C913B
:1036D0001697892B09F443C0EE85FF852581368135
:1036E00080914301909144012817390779F0199688
:1036F0008D909C90612CD60112968C911297681631
:1037000008F424CF1A969C928E921997BE81BB23FF
:1037100009F460CF61E070E0F6018781908546D4BE
:10372000D6011796ED90FC90189715964D915C91E7
:10373000E1E0F0E0BA81BB2311F0F0E0E0E00C81C1
:103740001D819C01B501882799278E1B9F0B68D38B
:103750008C01892B21F0F60185819681B3D5739474
:10376000D7CE0FEF1FEF8CCE10E000E00ECE2F92E1
:103770003F924F925F926F927F928F929F92AF9201
:10378000BF92CF92DF92EF92FF920F931F93CF934E
:10379000DF93809195039091960310E000E0892BD0
:1037A000A9F0C7DA0AEF1FEF882381F02090970372
:1037B00030909803C0919503D0919603D12CC12CE1
:1037C00010E000E02C143D04A9F47894C801DF91C6
:1037D000CF911F910F91FF90EF90DF90CF90BF900E
:1037E000AF909F908F907F906F905F904F903F90A1
:1037F0002F900895C6010E94F912882309F18B8148
:103800009C810397E9F48F859889892BC9F0B601CB
:1038100090E080E07AD221E030E0882311F030E0BF
:1038200020E044245524421A530AB12CA12C912C97
:10383000812C8A818815190409F038F4188A1F86AA
:103840004FEFC41AD40A6396BDCFE881F981EA0D1F
:10385000FB1D85819681892BA1F161E070E0878154
:103860009085A4D33C01D9D28C01E881F981EA0D7D
:10387000FB1D8185928525813681200F311FAC018A
:10388000421B530B9A0147815085421B530B70E03A
:1038900060E00E94472FE881F981EA0DFB1DE78077
:1038A000F084458156819301B601C201B9D28C01E1
:1038B000892B39F0E881F981EA0DFB1D858196811C
:1038C00001D55FEF851A950A8DE0A80EB11CB1CF26
:1038D00030CA789408952F923F924F925F926F92E0
:1038E0007F929F92AF92BF92CF92DF92EF92FF9220
:1038F0000F931F93CF93DF9300D000D000D0CDB7AC
:10390000DEB70091950310919603992493940115C5
:10391000110509F43EC0A0909703B090980309DA0E
:10392000982E8823B1F1109296031092950310926D
:103930009803109297031092990310929A038FEFB5
:103940009FEFDC0180934D0190934E01A0934F01B6
:10395000B093500178947AD31E830D83C12CD12C5F
:103960007601C501B0E0A0E089839A83AB83BC8374
:1039700022242A94322C89819A81AB81BC81C81679
:10398000D906EA06FB06F4F0C8019CD480E40E9444
:10399000380F892D26960FB6F894DEBF0FBECDBF27
:1039A000DF91CF911F910F91FF90EF90DF90CF901B
:1039B000BF90AF909F907F906F905F904F903F909F
:1039C0002F900895AD81BE8115968D919C9116978B
:1039D000209143013091440182179307D1F451960D
:1039E0008D919C91E9D5ED81FE8180819181B12CF1
:1039F000A12C412C512C3201892B89F5BFEFCB1A18
:103A0000DB0AEB0AFB0AED81FE817396FE83ED83F0
:103A1000B2CFC114D104E104F10429F7029718F7D9
:103A2000ED81FE81818992898F3F980709F024D525
:103A3000AD81BE8152963C922E925197D4CF8A0D81
:103A40009B1DDC018D919C91009709F03BD4BFEF49
:103A50004B1A5B0A6B0A7B0AEDE0AE0EB11CAD811E
:103A6000BE818D919C91119712964C9150E070E01F
:103A700060E044165506660677060CF323D4BECFE5
:103A8000CF93DF93EA0127DF811109C082E090E044
:103A90009983888385EF9FEFDF91CF91089581E02F
:103AA00090E00E942A0F81E090E09983888390E063
:103AB00080E0F2CF10DF10929203109291030895EC
:103AC00042E050E062E072E00C94480FFF920F93E6
:103AD0001F93CF93DF938A01EC01C60FD71FF980A4
:103AE000B4D20897F816190671F068F082E090E0F9
:103AF000F801918380838EEF9FEFDF91CF911F912B
:103B00000F91FF9008956C817D818E819F814B8103
:103B10000E94DF11811108C082E090E0F8019183DA
:103B2000808384EF9FEFE9CFF9800E94DA114F2D57
:103B300050E0BE01685F7F4F0E943E2F89810E9446
:103B4000491281E090E0F8019183808390E080E069
:103B5000D4CFDF92EF92FF920F931F93CF93DF9317
:103B60008A01EC01C60FD71F0E94DA117C01D980AF
:103B70006CD2DD2059F0029721E030E0D81619060A
:103B800019F010F030E020E0232B79F482E090E08F
:103B9000F801918380838EEF9FEFDF91CF911F918A
:103BA0000F91FF90EF90DF900895EF2841F482E0AD
:103BB00090E0F8019183808384EF9FEFEECFF9804E
:103BC0000E94DA114F2D50E0BE016E5F7F4F0E94C0
:103BD0003E2F89810E94491281E090E0F801918393
:103BE000808390E080E0D9CF80E69DE190939C03B4
:103BF00080939B03089580919B0390919C0308956B
:103C00000895FC0111821082938382830895DB0161
:103C10001D921C92DC011296ED91FC911397718319
:103C2000608313967C936E9312970895FC018081B4
:103C30009181DB018D939C93A081B181109741F01C
:103C40008D919C9191838083892B11F4F383E2837E
:103C50000895FC0180819181DB018D939C93892BD8
:103C600011F473836283718360830895FC01118270
:103C70001082938382830895CF93DF9300D0CDB7D2
:103C8000DEB71A821982F894BE016F5F7F4F82EA15
:103C900093E0CCDF89819A81009709F013D3898161
:103CA0009A81892B89F7BE016F5F7F4F86EA93E087
:103CB000BDDF89819A81009709F004D389819A81B7
:103CC000892B89F778940F900F90DF91CF91089509
:103CD000CF93DF9300D0CDB7DEB71A821982F89464
:103CE000BE016F5F7F4F8EE993E0A0DF89819A81EB
:103CF000009709F0E7D289819A81892B89F7789416
:103D00000F900F90DF91CF91089581E0089590E09A
:103D100080E00895EF92FF920F931F93CF93DF936C
:103D200000D0CDB7DEB71A82198280919D0307EFCC
:103D30001FEF8823A1F1F894BE016F5F7F4F86EAE1
:103D400093E074DF789489819A81EE24E394F12CD6
:103D5000892B51F4F894BE016F5F7F4F82EA93E0A4
:103D600065DF7894F12CE12C89819A810EEF1FEFA9
:103D70000097A9F0FC014281538164E070E070D6A5
:103D80008C01892B61F0F89469817A81C701880FD1
:103D9000991F880F991F8E559C4F5BDF7894C8013F
:103DA0000F900F90DF91CF911F910F91FF90EF90A7
:103DB00008950F931F93CF93DF9300D000D0CDB71A
:103DC000DEB71C821B821A82198280919D0307EF45
:103DD0001FEF8823C1F0AE014D5F5F4F64E070E0DC
:103DE000CE010196B0D68C01892B69F4E981FA8164
:103DF0008B819C8193838283F89469817A818EE997
:103E000093E005DF7894C8010F900F900F900F900A
:103E1000DF91CF911F910F910895B5D70496089522
:103E20008F929F92AF92BF92CF92DF92EF92FF92CA
:103E30000F931F93CF93DF9300D0CDB7DEB71A82D5
:103E40001982BC016F5F7F4F6330710598F0AA241F
:103E5000AA94BA2CC5010F900F90DF91CF911F91BA
:103E60000F91FF90EF90DF90CF90BF90AF909F9019
:103E70008F9008954115510551F3480159018A0168
:103E80006C01CBDF8815990511F7E114F104F9F203
:103E90008E0D9F1DA816B906D0F280919D03882330
:103EA000F1F0F894B501645071099701AE014F5FCC
:103EB0005F4FC8010496DCD65C01892B71F48981BF
:103EC0009A81F80193838283C601880F991F880F16
:103ED000991FB8018E559C4F9ADE7894BBCF87EF1F
:103EE000A82EBB24BA94B6CFAF92BF92CF92DF92E6
:103EF000EF92FF920F931F93CF93DF9300D0CDB734
:103F0000DEB71A821982892B09F047C06115710545
:103F100009F443C04115510509F43FC0211531058D
:103F200009F43BC001151105C1F180919D0388235F
:103F3000B9F179016A015B01F894BE016F5F7F4FAF
:103F40008EE993E073DE789489819A81009759F124
:103F5000DC0112966D917C91A8010496A2D68C0189
:103F6000E981FA81D501ED93FC93828193810496D6
:103F7000F6019183808351DFD7018D939C93C80113
:103F80000F900F90DF91CF911F910F91FF90EF90C5
:103F9000DF90CF90BF90AF9008950FEF1FEFEFCF5E
:103FA00007EF1FEFECCF0EEF1FEFE9CFCF93DF93BB
:103FB000EC01672B71F4F0D68C179D0760F0E3D607
:103FC0002496C80FD91FE2D68C0F9D1FDF91CF9189
:103FD0000895DFD6F1CF90E080E0F8CF0F931F93E4
:103FE000CF93DF9320919D0321112BC08B01EC0116
:103FF00082EA93E006DE86EA93E003DE8EE993E050
:1040000000DE97D00097C1F4C7D670E060E0CEDF45
:1040100041E551E062E070E081D1009769F4809160
:10402000510190915201CAD6B801CE01FFD4009738
:1040300019F421E020939D03DF91CF911F910F91FF
:10404000089584EF9FEFF8CFA4C6A6C6CF93DF9361
:10405000A6D6EC01892B11F40FDE3ADECE01DF91FA
:10406000CF910895CF93DF939AD6EC01892B09F471
:1040700003DECE01DF91CF9108958091510190919F
:1040800052010895CF93DF9380919D03D0E0C0E06B
:104090008823D1F098D6EC01892BB1F4EDDD18DE40
:1040A0008091510190915201E7D1E8D2EC01892B26
:1040B00059F482EA93E0DADD86EA93E0D7DD8EE90F
:1040C00093E0D4DD10929D03CE01DF91CF9108954E
:1040D000EF92FF920F931F93CF93DF93EC017A013E
:1040E0008B010F5F1F4F0E9DA0010F9D500D1E9D58
:1040F000500D112470E060E00E94472F90E080E0B6
:10410000F0E0E0E02FEFE816F90639F4DF91CF9107
:104110001F910F91FF90EF9008951A8219822883C2
:10412000309711F0D283C1830196FE01C00FD11FD9
:10413000EACFCF92DF92EF92FF920F931F93CF932C
:10414000DF9306EB14E00C7F43E050E063E571E0A1
:1041500089E591E018D483E5E82E81E0F82E99E511
:10416000C92E91E0D92EC5E3D5E0D7014D915D91DF
:104170007D01F601619171916F01198308835D835F
:104180004C835B834A837F836E839B012F5F3F4F0A
:10419000249FC001259F900D349F900D1124998775
:1041A00088870115110511F0C80192DF888599856E
:1041B000080F191F2A96F9E5EF16F1E0FF06A9F698
:1041C000ECEAF3E087E091E0DF019C011D922150D1
:1041D0003040E1F71092AB031092AA0310925405FD
:1041E00010925305109258051092570510925605DB
:1041F0001092550510925A051092590510925C05BF
:1042000010925B0510925E0510925D05109262059A
:10421000109261051092600510925F05109264057E
:104220001092630510926605109265051092320592
:1042300010923105109234051092330590E080E021
:10424000DF91CF911F910F91FF90EF90DF90CF9072
:1042500008950097F1F0F894A9E5B1E0E5E3F5E001
:1042600030E020E04D915D9148175907A8F0428158
:1042700053814115510581F08AE0829FF001839FAF
:10428000F00D1124EB5CFA4F80819181009759F475
:10429000789490E080E008952F5F3F4F3A96233066
:1042A000310501F7F5CFDC0111966D917C91718399
:1042B00060834150510953834283FC012193CF0114
:1042C00078940895009749F1DC018E91853041F48E
:1042D000E0913305F09134053097F9F0CD01099460
:1042E0008530D8F4282F30E0F8948FEF8C938AE053
:1042F000829FF001839FF00D1124EB5CFA4F8081C7
:10430000918112969C938E931197B183A0838281A1
:10431000938101969383828378940895CF92DF925C
:10432000EF92FF920F931F93CF93DF939C018FEA3D
:1043300093E08C7F4115510509F49BC0211531058F
:1043400009F497C06115710509F493C07A01AB01B6
:10435000B9016D5F7F4F6C7F9B012F5F3F4F249FA3
:104360008001259F100D349F100D1124F894209189
:10437000530530915405232B59F420915B0530915E
:104380005C052115310569F12017310708F058C087
:1043900020915D0530915E05232B91F420915B0502
:1043A00030915C05820F931F209165053091660561
:1043B0002115310509F441C02017310708F056C016
:1043C0007894CFEFDFEF86EF9FEFF701D183C083C3
:1043D000DF91CF911F910F91FF90EF90DF90CF90E1
:1043E0000895C3E0D0E0C090AA03D090AB0324E0CE
:1043F00031E02C193D092017310710F32AE02C9FDA
:10440000F0012D9FF00D1124EB5CFA4F9183808316
:104410005583448353834283778366831187008760
:10442000009709F055DE0C0D1D1D1093AB03009392
:10443000AA03789490E080E0C8CFC4E0D0E0D3CF66
:10444000C3E0D0E02AE02C9FF0012D9FF00D112455
:10445000EB5CFA4F9183808355834483538342837B
:1044600077836683009729F333DEE3CFC4E0D0E09F
:10447000E9CF8FEF9FEFACCF9C010397029708F035
:1044800069C0F89484E09AE0482F50E0241735077B
:104490000CF44DC091E08AE0829FF001839FF00D03
:1044A0001124EB5CFA4F1182108215821482138260
:1044B0001282178216829923B1F18091530590914F
:1044C0005405892BA9F420915B0530915C052115D9
:1044D000310571F08091AA039091AB03821B930B7D
:1044E0009093AB038093AA0310925C0510925B0536
:1044F00080915D0590915E05892BA9F42091650559
:10450000309166052115310571F08091AA039091D3
:10451000AB03821B930B9093AB038093AA0310927F
:10452000660510926505789490E080E00895949F68
:10453000F001959FF00D1124EB5CFA4F4081518101
:10454000452B31F440855185452B11F481509CCF8A
:1045500090E0A1CF8FEF9FEF08954115510549F1EC
:10456000009739F16115710521F1F8942091310519
:1045700030913205232BB9F4209133053091340565
:10458000232B89F490933205809331057093340581
:1045900060933305789425E030E090E080E0FA0104
:1045A00031832083089578942FEF3FEF86EF9FEFBC
:1045B000F6CF8FEF9FEF0895059769F4F894109266
:1045C000320510923105109234051092330578941B
:1045D00090E080E008958FEF9FEF089561157105D9
:1045E00019F4F0E0E0E011C08530910581F4E0912C
:1045F0003105F09132053097A1F3CB010196099571
:10460000009779F3FC0185E08193CF0108959C0127
:10461000235031092230310520F72AE0289FD001AC
:10462000299FB00D1124AB5CBA4F2D913C9111978D
:10463000232BB9F216962D913C9117972617370721
:1046400080F2F89412962D913C9113972115310523
:1046500029F0ED91FC911197309711F47894C1CF26
:104660004181528111965C934E93215031091396EA
:104670003C932E93129781937894C7CFE3EBF4E0A9
:104680008EE7DF011D928A95E9F7ECEAF3E087E017
:1046900091E0DF019C011D9221503040E1F7109222
:1046A000AB031092AA03E5E3F5E082E3DF011D927C
:1046B0008A95E9F7E1E3F5E084E0DF011D928A9550
:1046C000E9F790E080E00895CF93DF93C0915F0118
:1046D000D0916001CF3FDC0759F407D4909360017B
:1046E00080935F0197FF09C0D0936001C0935F0181
:1046F00084EF9FEFDF91CF91089590E080E0FACFB3
:104700008230910528F48093670590E080E0089559
:104710008FEF9FEF08954F925F926F927F92AF92CB
:10472000BF92CF92DF92EF92FF920F931F93CF939E
:10473000DF9300D0CDB7DEB71A821982009709F453
:1047400078C06115710509F474C020915F01309142
:10475000600107EF1FEF2F3F3F4F09F444C06B018B
:104760005C01412C512C3201F12CE12C10E000E0D5
:104770009E012F5F3F4FA6014E195F09B5016E0DD7
:104780007F1D80915F01909160010ED4892B09F00B
:104790004AC089819A81009741F4E114F10429F417
:1047A00020916705222309F441C0E80EF91EEC149C
:1047B000FD04C8F480E8481684E858068EE16806CF
:1047C000710418F560E070E0CB01A1D72AE0420E39
:1047D000511C611C711C0A3F4FEF140721F0043F6C
:1047E0008FEF1807A1F4C8010F900F90DF91CF91C0
:1047F0001F910F91FF90EF90DF90CF90BF90AF90FF
:104800007F906F905F904F90089501EF1FEF81E0D0
:1048100090E0013F2FEF120711F090E080E0892B2C
:1048200009F4A6CFE0CF04EF1FEFDDCF0AEF1FEFB3
:10483000DACF0FEF1FEFD7CF4F925F926F927F9239
:10484000AF92BF92CF92DF92EF92FF920F931F939E
:10485000CF93DF9300D0CDB7DEB71A8219820097CD
:1048600009F478C06115710509F474C020915F01E5
:104870003091600107EF1FEF2F3F3F4F09F444C015
:104880006B015C01412C512C3201F12CE12C10E028
:1048900000E09E012F5F3F4FA6014E195F09B50151
:1048A0006E0D7F1D80915F019091600133D3892B44
:1048B00009F04AC089819A81009741F4E114F1041A
:1048C00029F420916705222309F441C0E80EF91E5E
:1048D000EC14FD04C8F480E4481682E458068FE026
:1048E0006806710418F560E070E0CB0110D72AE08B
:1048F000420E511C611C711C0E3F4FEF140721F03A
:10490000043F8FEF1807A1F4C8010F900F90DF91BB
:10491000CF911F910F91FF90EF90DF90CF90BF90BC
:10492000AF907F906F905F904F90089502EF1FEFD0
:1049300081E090E0023F2FEF120711F090E080E05D
:10494000892B09F4A6CFE0CF04EF1FEFDDCF0EEFE8
:104950001FEFDACF0FEF1FEFD7CF80915F0190915C
:1049600060018F3F980749F0B8D2892B49F48FEF47
:104970009FEF9093600180935F0190E080E0089545
:1049800084EF9FEF0895CF92DF92EF92FF920F9303
:104990001F93CF93DF9321E04115510509F020E0EB
:1049A0004150510921112CC0DC01FB01D12CC12C3B
:1049B00021E022C03FEFC31AD30A7D010D911D9162
:1049C000E701EA80FB80E016F106A8F4208131813E
:1049D000E280F380F182E08233832283ED90FC90C9
:1049E00011979D0122503109E901F982E88211965F
:1049F0001C930E9320E03296C416D506D8F2D2CF7F
:104A0000DF91CF911F910F91FF90EF90DF90CF90AA
:104A10000895FC01680F791F90E080E0E617F70722
:104A200009F408952191820F911DF8CF2091680516
:104A3000211113C049DE009791F410926E05109277
:104A40006D0510926C0510926B0510926A0510921C
:104A5000690521E020936805089584EF9FEF08958C
:104A6000AF92BF92CF92DF92EF92FF920F931F937C
:104A7000CF93DF93009709F460C04630510508F4E6
:104A80005CC020916805C7EFDFEF222309F449C01D
:104A90008C01060F171FF801C080D180C114D1040A
:104AA00009F44EC096012A5F3F4F4217530708F49E
:104AB00047C07C0180916D0590916E059383828340
:104AC000B6016C5F7F4F5801A60EB71EC801A1DF6B
:104AD000F5019183808364E070E0C8011CDEEC0185
:104AE000892BF9F481E090E00BDEB601C801049651
:104AF00012DEEC01892B91F462E070E0C5010BDE5F
:104B0000EC01892B59F4C701DDDB80916D05909193
:104B10006E05019690936E0580936D0590E080E0A0
:104B2000EFDDCE01DF91CF911F910F91FF90EF90BC
:104B3000DF90CF90BF90AF900895CFEFDFEFF1CF30
:104B4000C9EFDFEFEECF6F927F928F929F92AF927D
:104B5000BF92CF92DF92EF92FF920F931F93CF936A
:104B6000DF9300D000D0CDB7DEB7009709F47AC04C
:104B70004115510509F476C02091680507EF1FEF34
:104B8000222309F44DC03A017B015C0164E070E02E
:104B9000CE01019651DE8C01892B09F041C00981BB
:104BA0001A810115110509F45AC0480186E0880EE2
:104BB000911CB701680D791D80916101909162018E
:104BC0000DDD6C01009709F450C0A70170E060E0B2
:104BD0000E94472F89819A81AB81BC81EC0CFD1C1E
:104BE000F70181939193A193B1937F0181E090E0CC
:104BF00087DDB801C70120DE892B31F562E070E066
:104C0000C701800F911F18DE8C01892BE9F490E019
:104C100080E076DDF501D182C082F301918280824D
:104C2000C8010F900F900F900F90DF91CF911F91BF
:104C30000F91FF90EF90DF90CF90BF90AF909F903B
:104C40008F907F906F90089590E080E059DDF5019E
:104C500011821082F30111821082C60133DB09EF49
:104C60001FEFDECF0FEF1FEFDBCF06EF1FEFD8CF29
:104C70000097A1F04115510589F02115310571F01A
:104C8000F90136966E177F0748F0DC012D933C93AF
:104C9000DA01ED93FC9390E080E008958FEF9FEFB1
:104CA0000895AF92BF92CF92DF92EF92FF920F934F
:104CB0001F93CF93DF93009709F45FC0411551050F
:104CC00009F45BC06530710508F457C02091680590
:104CD000C7EFDFEF222391F1DC01CD90DC9011973B
:104CE0001296ED91FC9196012A5F3F4FC9EFDFEFDD
:104CF0002617370719F5C0916905D0916A052097E5
:104D000049F521E030E030936A05209369057A0186
:104D10008C01F0936C05E0936B055601B4E0AB0E8B
:104D2000B11CB50176DE0A0D1B1DF8012081318111
:104D30008217930729F5D701CD92DC92CE01DF913E
:104D4000CF911F910F91FF90EF90DF90CF90BF9088
:104D5000AF90089520916B0530916C052F5F3F4F08
:104D6000CCEFDFEFE217F30790F2CBEFDFEF2E1778
:104D70003F0768F2D0E0C0E0CACFCFEFDFEFDECF71
:104D8000C3EFDFEFDBCF84E090E0089582E090E0B6
:104D900008958CEF9FEF089580E290E008951092BF
:104DA0006E0510926D0510926C0510926B051092B5
:104DB0006A051092690590E080E008959093620181
:104DC00080936101089580916805882391F0C5DD85
:104DD000009789F410926E0510926D0510926C0583
:104DE00010926B0510926A05109269051092680581
:104DF000089590E080E00895009749F061157105ED
:104E000031F0FC0111821082FB01118210820895A1
:104E1000F3CF26E030E040E855E260E070E090E05B
:104E200080E000C0892B19F48CE795E0C0C6089596
:104E30001F920F920FB60F9211242F933F934F930F
:104E40005F936F937F938F939F93AF93BF93EF93F2
:104E5000FF938FE89DEF9093850080938400B7D0F7
:104E6000FF91EF91BF91AF919F918F917F916F9142
:104E70005F914F913F912F910F900FBE0F901F9018
:104E800018958FE89DEF9093850080938400AFE69E
:104E9000B0E08C918E7F8C93E0E8F0E080818C7F95
:104EA0008083E1E8F0E08081877E80838081846078
:104EB000808380818C7F80838C9181608C93089526
:104EC000EFE6F0E0808190819E7F9083817008956D
:104ED00081E0089510926F05089568EE73E080E018
:104EE00090E015D490E080E0089526E030E040E0C6
:104EF00052EC61E070E090E080E094DF8CE795E0B8
:104F00008CD5892B21F08CE795E0A1D5F7CF90E0E7
:104F100080E00895CF92DF92EF92FF920F931F935C
:104F2000CF93DF936B017A01E901198218828CE734
:104F300095E073D5892B69F18601CC24C39482E076
:104F4000D82E80916F05811110C08CE795E07FD538
:104F50000297B9F7C0926F05F801D1928F0188814D
:104F60009981019699838883ECCF888199818E15E8
:104F70009F0578F48CE795E06AD58F3F9807A9F3F1
:104F8000F80181938F0188819981019699838883A3
:104F9000ECCF90E080E0DF91CF911F910F91FF90D7
:104FA000EF90DF90CF9008950F931F93CF93DF93EF
:104FB000EA0189018CE795E0DED6F801D183C08350
:104FC00090E080E0DF91CF911F910F910895809143
:104FD000700591E0980F90937005882349F021E0C7
:104FE00030E0309372052093710580937005089529
:104FF00078940E94AD05F894809170058150F5CFAA
:105000000F931F93CF93DF9310926A061092690655
:10501000B4D3FFDEC0918E01D0918F011982188226
:105020006FEF7FEFCB010E94530570E060E090E0EE
:1050300080E00E94D403009709F042C00E945D07FF
:10504000F8947894BE016C557F4F8A819B810E94B1
:10505000D703892B71F46FEF7FEFCB010E946604B9
:105060000E944D05882329F081E0FE01E655FF4F9F
:105070008083F89406DF0E945005882311F080E0B9
:105080000BC00E944D058111FACF81E0FE01E6556B
:10509000FF4F90819111F3CF8093690678940E941D
:1050A000250F8C017894C655DF4F809169068111D8
:1050B0000CC00E9465080E943205F89490E080E0E0
:1050C000DF91CF911F910F9108950E9430050E94AA
:1050D00050058823D9F081E080936A0690916A0692
:1050E00081E0911180E08093690680916A068111C8
:1050F000E7DE0130110529F40E94250F892B09F400
:10510000E9DE0E94250F8C01E3DECFCF0E944D0522
:105110008111E1CF81E098819111DECF80E0DCCF79
:105120005058BB27AA270ED05CC14DD130F052D1C8
:1051300020F031F49F3F11F41EF442C10EF4E095CB
:10514000E7FB0FC1E92F5ED180F3BA17620773073F
:105150008407950718F071F49EF58DC10EF4E09563
:105160000B2EBA2FA02D0B01B90190010C01CA0121
:10517000A0011124FF27591B99F0593F50F4503ECC
:1051800068F11A16F040A22F232F342F4427585FBE
:10519000F3CF469537952795A795F0405395C9F7D6
:1051A0007EF41F16BA0B620B730B840BBAF091508E
:1051B000A1F0FF0FBB1F661F771F881FC2F70EC02D
:1051C000BA0F621F731F841F48F487957795679500
:1051D000B795F7959E3F08F0B3CF9395880F08F0E9
:1051E0009927EE0F9795879508952ED180F09F37D8
:1051F00040F491110EF440C160E070E080E89FE35C
:10520000089526F01B16611D711D811DB0C0CAC016
:1052100084D008F481E0089504D06894B1112CC1C1
:105220000895F8D088F09F5790F0B92F9927B7517B
:10523000A0F0D1F0660F771F881F991F1AF0BA955A
:10524000C9F712C0B13081F016D1B1E0089513C191
:10525000672F782F8827B85F39F0B93FCCF3869550
:1052600077956795B395D9F73EF4909580957095AD
:1052700061957F4F8F4F9F4F0895E89409C097FB2A
:105280003EF490958095709561957F4F8F4F9F4F1D
:105290009923A9F0F92F96E9BB279395F695879561
:1052A00077956795B795F111F8CFFAF4BB0F11F424
:1052B00060FF1BC06F5F7F4F8F4F9F4F16C08823CB
:1052C00011F096E911C0772321F09EE8872F762F01
:1052D00005C0662371F096E8862F70E060E02AF042
:1052E0009A95660F771F881FDAF7880F969587952E
:1052F00097F90895A9D080F09F3740F491110EF0EE
:10530000BBC060E070E080E89FEB089526F41B16B8
:10531000611D711D811D2BC045C0990F0008550FDF
:10532000AA0BE0E8FEEF16161706E807F907C0F02B
:1053300012161306E407F50798F0621B730B840B33
:10534000950B39F40A2661F0232B242B252B21F40D
:1053500008950A2609F4A140A6958FEF811D811DAD
:10536000089597F99F6780E870E060E008958823CA
:1053700071F4772321F09850872B762F07C066238E
:1053800011F499270DC09051862B70E060E02AF04F
:105390009A95660F771F881FDAF7880F969587957D
:1053A00097F908959F3F31F0915020F487957795B4
:1053B0006795B795880F911D9695879597F90895EC
:1053C0009FEF80EC089500240A941616170618061D
:1053D0000906089500240A941216130614060506F9
:1053E0000895092E0394000C11F4882352F0BB0F8A
:1053F00040F4BF2B11F460FF04C06F5F7F4F8F4FED
:105400009F4F089557FD9058440F551F59F05F3F27
:1054100071F04795880F97FB991F61F09F3F79F0D6
:1054200087950895121613061406551FF2CF469558
:10543000F1DF08C0161617061806991FF1CF8695DA
:105440007105610508940895E5DFA0F0BEE7B9177E
:1054500088F4BB279F3860F41616B11D672F782F8C
:105460008827985FF7CF869577956795B11D9395B7
:105470009639C8F30895E894BB2766277727CB01B0
:1054800097F908954ADF08F48FEF08950BD0A9CF5C
:105490009ADF28F09FDF18F0952309F062CF90CFB4
:1054A0001124EACFAFDFA0F3959FD1F3950F50E021
:1054B000551F629FF001729FBB27F00DB11D639FC6
:1054C000AA27F00DB11DAA1F649F6627B00DA11D6C
:1054D000661F829F2227B00DA11D621F739FB00D12
:1054E000A11D621F839FA00D611D221F749F332782
:1054F000A00D611D231F849F600D211D822F762F1B
:105500006A2F11249F5750408AF0E1F088234AF017
:10551000EE0FFF1FBB1F661F771F881F9150504063
:10552000A9F79E3F510570F01CCFA6CF5F3FECF36B
:10553000983EDCF3869577956795B795F795E7954F
:105540009F5FC1F7FE2B880F911D9695879597F960
:10555000089508958230E8F4E82FF0E0EE0FFF1F81
:10556000ED59FE4F71836083813041F08091690075
:105570008C7F482B40936900E89A089580916900D8
:10558000837F440F551F440F551F482B40936900DC
:10559000E99A08951F920F920FB60F9211242F933C
:1055A0003F934F935F936F937F938F939F93AF93AB
:1055B000BF93EF93FF93E0916301F091640109952C
:1055C000FF91EF91BF91AF919F918F917F916F91DB
:1055D0005F914F913F912F910F900FBE0F901F90B1
:1055E00018951F920F920FB60F9211242F933F938D
:1055F0004F935F936F937F938F939F93AF93BF93DB
:10560000EF93FF93E0916501F09166010995FF9199
:10561000EF91BF91AF919F918F917F916F915F912A
:105620004F913F912F910F900FBE0F901F901895A3
:105630001F920F920FB60F9211242F933F938F93C7
:105640009F93AF93BF938091740590917505A0913E
:105650007605B09177053091730523E0230F2D3740
:1056600058F50196A11DB11D209373058093740513
:1056700090937505A0937605B09377058091780592
:1056800090917905A0917A05B0917B050196A11DB5
:10569000B11D8093780590937905A0937A05B09316
:1056A0007B05BF91AF919F918F913F912F910F906B
:1056B0000FBE0F901F90189526E8230F0296A11D8C
:1056C000B11DD2CF3FB7F8948091780590917905BC
:1056D000A0917A05B0917B0526B5A89B05C02F3F08
:1056E00019F00196A11DB11D3FBFBA2FA92F982F08
:1056F0008827BC01CD01620F711D811D911D42E003
:10570000660F771F881F991F4A95D1F708958F92CA
:105710009F92AF92BF92CF92DF92EF92FF926B0176
:105720007C01D0DF4B015C01C114D104E104F10420
:10573000D9F04ED3C7DF681979098A099B09683EF9
:1057400073408105910580F321E0C21AD108E10878
:10575000F10888EE880E83E0981EA11CB11CC114CC
:10576000D104E104F10431F7FF90EF90DF90CF9086
:10577000BF90AF909F908F900895789484B5826089
:1057800084BD84B5816084BD85B5826085BD85B5E5
:10579000816085BDEEE6F0E0808181608083E1E894
:1057A000F0E01082808182608083808181608083CC
:1057B000E0E8F0E0808181608083E1EBF0E08081CF
:1057C00084608083E0EBF0E0808181608083EAE7A1
:1057D000F0E080818460808380818260808380812A
:1057E000816080838081806880831092C1000895E9
:1057F0001F93CF93DF93182FEB0161E07DD02097AB
:1058000031F460E0812FDF91CF911F91B1C0CF3F84
:10581000D10511F461E0F6CFE12FF0E0E859FF4F38
:10582000E491E33031F140F4E130B1F0E230E1F005
:10583000C038D1057CF7E5CFE73029F1E83059F1E0
:10584000E430B1F780918000806280938000D09333
:105850008B00C0938A0004C084B5806884BDC7BD36
:10586000DF91CF911F91089584B5806284BDC8BD3A
:10587000F7CF80918000806880938000D09389006A
:10588000C0938800EDCF8091B00080688093B00015
:10589000C093B300E5CF8091B00080628093B000E8
:1058A000C093B400DDCF833081F028F4813099F0CB
:1058B0008230A9F008958730A9F08830C9F084308B
:1058C000B1F4809180008F7D03C0809180008F773C
:1058D00080938000089584B58F7784BD089584B542
:1058E0008F7DFBCF8091B0008F778093B0000895BB
:1058F0008091B0008F7DF9CFCF93DF9390E0FC01D2
:10590000E458FF4F249180579F4FFC0184918823D6
:10591000C9F090E0880F991FFC01E854FF4FA59152
:10592000B491FC01E255FF4FC591D49161110DC0B6
:105930009FB7F8948C91209582238C93888128239B
:1059400028839FBFDF91CF910895623051F49FB7B4
:10595000F8943C91822F809583238C93E8812E2BA1
:10596000EFCF8FB7F894EC912E2B2C938FBFEACF0B
:105970001F93CF93DF93282F30E0F901E859FF4FB1
:105980008491F901E458FF4FD491F901E057FF4F9A
:10599000C491CC23A1F0162F811185DFEC2FF0E00C
:1059A000EE0FFF1FE255FF4FA591B4918FB7F8940A
:1059B000EC91111108C0D095DE23DC938FBFDF91ED
:1059C000CF911F910895DE2BF8CFCF93DF93282F2F
:1059D00030E0F901E859FF4F8491F901E458FF4F95
:1059E000D491F901E057FF4FC491CC2399F0811174
:1059F0005ADFEC2FF0E0EE0FFF1FEC55FF4FA591A3
:105A0000B491EC91ED2381E090E009F480E0DF9126
:105A1000CF91089580E090E0FACFFC01918D228D26
:105A2000892F90E0805C9F4F821B91098F7399278B
:105A30000895FC01918D828D981731F0828DE80FC9
:105A4000F11D858D90E008958FEF9FEF0895FC0183
:105A5000918D828D981761F0A28DAE0FBF2FB11D71
:105A60005D968C91928D9F5F9F73928F90E00895C9
:105A70008FEF9FEF0895FC01538D448D252F30E06B
:105A8000842F90E0821B930B541710F0CF9608954B
:105A900001970895FC01A48DA80FB92FB11DA35A39
:105AA000BF4F2C91848D90E001968F739927848F3E
:105AB000A689B7892C93A089B1898C918370806461
:105AC0008C93938D848D981306C00288F389E02D02
:105AD00080818F7D80830895CF93DF93EC01888D43
