:1000000070C000000C94A8310C94CF3192C0000055
:1000100090C000008EC000008CC000008AC00000AC
:1000200088C0000086C0000084C0000082C00000BC
:1000300080C000000C94CD2C7CC000007AC0000071
:100040000C94F63176C000000C9415350C944735AD
:1000500070C000006EC000006CC000006AC00000EC
:1000600068C0000066C0000005A84CCDB2D44EB9EF
:100070003836A9020C50B9918688083CA6AAAA2A4B
:10008000BE000000803F00000008000201000003E5
:100090000407000000000000000001020408102016
:1000A000408001020408102001020408102004040A
:1000B0000404040404040202020202020303030310
:1000C00003030000000023002600290000000000B8
:1000D000250028002B0000000000240027002A0033
:1000E0006C3511241FBECFEFD8E0DEBFCDBF12E0CC
:1000F000A0E0B1E0ECE5FCE602C005900D92AE3860
:10010000B107D9F727E0AEE8B2E001C01D92AF37E2
:10011000B207E1F710E0C1E7D0E004C02197FE018B
:100120000E94FD35C037D107C9F70E94B62D0C9447
:100130002C3666CF611102C00C945A336130E1F362
:1001400062E0FACF662319F061E00C94963360E028
:10015000FCCFCF92DF92EF92FF92CF93882351F1A1
:100160006A017B01CFEFC80F20E030E0A901CB018D
:10017000B6010E94BE2E87FF11C0C701B60190587C
:100180000E94322F9B01AC016C2F70E090E080E068
:10019000CF91FF90EF90DF90CF90B2C0C701B60132
:1001A0000E942D2F8C2FCF91FF90EF90DF90CF905A
:1001B0000C94D632CF91FF90EF90DF90CF900895BE
:1001C0000F931F938B019C0183E03695279517951C
:1001D00007958A95D1F702571D4F462F477021E0AA
:1001E00030E0F90102C0EE0FFF1F4A95E2F7AF01C0
:1001F000F80120812423CB010196211102C090E057
:1002000080E01F910F9108950F931F938B019C0124
:1002100083E036952795179507958A95D1F76770EE
:1002200081E090E001C0880F6A95EAF7F801E25793
:10023000FD4F2081452B31F48095822380831F91CF
:100240000F910895822BFACF2F923F924F925F9297
:100250006F927F928F929F92AF92BF92CF92DF92D6
:10026000EF92FF920F931F93CF93DF93D62EC72E5B
:10027000782E692E49015A01280161E08D2D0E94D6
:100280005A33CD2DDC2D8E010F5F1F4FA8016D2D30
:100290007C2D872D962DB8DF20E030E0A901C2012A
:1002A000B7010E94EA30181664F4C201B7010E9437
:1002B000322F2B01C501B4010E94322FA201CE01C1
:1002C00023D0C801DF91CF911F910F91FF90EF9044
:1002D000DF90CF90BF90AF909F908F907F906F9066
:1002E0005F904F903F902F900895882341F0815068
:1002F000682F70E090E080E050E040E085CF089506
:10030000862FB9010C94D6329C01FC01EA57FF4FAD
:10031000E491E33061F140F4E13011F1E23021F198
:1003200060E0822F0C949633E730C1F1E83009F495
:1003300041C0E430A9F7809180008C7F8260809377
:10034000800090918100907E9061692B6093810084
:1003500050938700409386008091800080621BC08C
:1003600084B5806884BDDCCF84B58062FBCF80918A
:1003700080008C7F82608093800090918100907ECD
:100380009061692B609381005093870040938600B1
:1003900080918000806880938000C2CF8091B000FF
:1003A00080688093B0008091B100887F682B609353
:1003B000B100B6CF8091B0008062F3CFCF93DF93CE
:1003C000EC0170E060E06C177D070CF5072E000C67
:1003D000880B990B0E94602F20E030E0A9010E9459
:1003E000472E20E030E0A9010E94472E20E030E0B7
:1003F00040E450E40E94472E20E030E040E450E426
:100400000E94462E0E942D2F6F5F7F4FDCCFDF9121
:10041000CF910895CF93DF938091A7029091A80286
:100420000E94C333EC018091AD029091AE02C6DF11
:100430008091A9029091AA020E94C333019771F49E
:100440008091AB029091AC02219771F40196909348
:10045000AC028093AB02DF91CF9108958091AB0203
:100460009091AC02CD2B91F30197F1CFCF93DF9315
:1004700080919F029091A0020E94C333EC01809171
:10048000A5029091A6029ADF8091A1029091A2020A
:100490000E94C333019771F48091A3029091A4024A
:1004A000219771F401969093A4028093A302DF91A7
:1004B000CF9108958091A3029091A402CD2B91F346
:1004C0000197F1CFCF93DF9380919702909198029B
:1004D0000E94C333EC0180919D0290919E026EDFD9
:1004E0008091990290919A020E94C333019771F40E
:1004F00080919B0290919C02219771F401969093B8
:100500009C0280939B02DF91CF91089580919B0282
:1005100090919C02CD2B91F30197F1CFCF93DF9374
:100520008091A1029091A2020E94C333EC018091BC
:10053000A5029091A60242DF80919F029091A002B5
:100540000E94C333019771F48091A3029091A40299
:10055000CD2B71F401969093A4028093A302DF91B6
:10056000CF9108958091A3029091A402219791F3D5
:100570000197F1CFCF93DF938091990290919A02E6
:100580000E94C333EC0180919D0290919E0216DF80
:1005900080919702909198020E94C333019771F461
:1005A00080919B0290919C02CD2B71F401969093C7
:1005B0009C0280939B02DF91CF91089580919B02D2
:1005C00090919C02219791F30197F1CFCF93DF9304
:1005D0008091A9029091AA020E94C333EC018091FC
:1005E000AD029091AE02EADE8091A7029091A8023E
:1005F0000E94C333019771F48091AB029091AC02D9
:10060000CD2B71F401969093AC028093AB02DF91F5
:10061000CF9108958091AB029091AC02219791F314
:100620000197F1CF0F931F93CF93DF938C01EC01D0
:1006300083E0CC0FDD1F8A95E1F7C956DD4F798342
:1006400068835B834A838881998160E00E945A3382
:100650008A819B8160E00E945A338881998161E0A0
:100660000E9496338A819B8161E00E94963301301B
:100670001105D9F10230110509F466C0012B09F00A
:1006800092C08091970290919802029784319105CF
:1006900030F58B529E4FFC018081082E000C990B87
:1006A00041E050E06AEB72E00E948831809199024B
:1006B00090919A02029784319105A0F48B529E4F3B
:1006C000FC018081082E000C990B41E050E062E6AD
:1006D00072E0DF91CF911F910F910C9488318FEFD1
:1006E0009FEFDECF8FEF9FEFF0CF80919F02909131
:1006F000A00202978431910508F58B529E4FFC01B0
:100700008081082E000C990B41E050E06EE872E009
:100710000E9488318091A1029091A20202978431B7
:10072000910578F48B529E4FFC018081082E000CBD
:10073000990B41E050E066E372E0CBCF8FEF9FEF83
:10074000E3CF8FEF9FEFF5CF8091A7029091A802A2
:1007500002978431910508F58B529E4FFC018081F0
:10076000082E000C990B41E050E066EE72E00E940A
:1007700088318091A9029091AA0202978431910553
:1007800078F48B529E4FFC018081082E000C990B4F
:1007900041E050E06AE072E09CCF8FEF9FEFE3CF43
:1007A0008FEF9FEFF5CFDF91CF911F910F910895BC
:1007B00023E0880F991F2A95E1F7FC01E956FD4FC8
:1007C00084819581089590E080E008950F931F93B0
:1007D000009709F489C06115710509F485C000917D
:1007E000A8011091A9012091AA013091AB010E3FFF
:1007F0001F4F2F4F3F4F09F068C04FEF5FEFBA0117
:100800004093A8015093A9016093AA017093AB0192
:100810004091A8015091A9016091AA017091AB018A
:10082000DC011296ED91FC9180819181A281B381CE
:100830008093BB039093BC03A093BD03B093BE030E
:1008400084819581A681B7818093B7039093B80383
:10085000A093B903B093BA0380859185A285B3852F
:100860008093B3039093B403A093B503B093B603FE
:1008700084859585A685B7858093AF039093B00353
:10088000A093B103B093B2031092AB031092AC03E8
:100890001092AD031092AE030E94CC1081EF90E154
:1008A0009093B0028093AF029093B2028093B10212
:1008B0000E94BB0F009731F421E030E03093C00379
:1008C0002093BF031F910F9108950091A8011091EB
:1008D000A9012091AA013091AB01DB010D931D9379
:1008E0002D933C93139794CF8FEF9FEFEBCF8F9285
:1008F0009F92AF92BF92CF92DF92EF92FF921F939F
:10090000CF93DF934B015C011091C20382E090E032
:100910009093C0038093BF0381149104A104B10498
:1009200041F48091C203811104C08091C103C1E0F0
:100930008111C0E0C12CD12C76018091C2038111BC
:1009400006C08091C103811102C0CC23D9F083E09D
:1009500090E09093C0038093BF03CC2381F1CCE956
:10096000DFEF111102C00E945614CE01DF91CF912A
:100970001F91FF90EF90DF90CF90BF90AF909F902E
:100980008F9008956AE070E080E090E00E94653208
:1009900080E1C80E87E2D81EE11CF11C8FEF88169B
:1009A0009806A806B80631F0C1E08C149D04AE0488
:1009B000BF0408F0C0E080E00E94EF0FBECFD0E09F
:1009C000C0E0CFCFCF92DF92EF92FF920F931F93B1
:1009D000CF93DF938F3F910511F008F051C0209124
:1009E000BF033091C0032330310539F02091BF039C
:1009F0003091C0032130310531F424E030E03093F0
:100A0000C0032093BF036A017B01EC018230910592
:100A1000A8F011E0AE01C701B6010E94BA0FAB0108
:100A2000BC01CE011123F9F0DF91CF911F910F91FD
:100A3000FF90EF90DF90CF900C947F168C01000F09
:100A4000111F01551D4FD8018D919C91892B09F3E0
:100A50000E9489160297E9F6D801ED91FC91CE012A
:100A60000995182FD7CF0E94A11690E080E0DF9162
:100A7000CF911F910F91FF90EF90DF90CF9008954D
:100A80008FEF9FEFF4CF80E00C94EF0FCF93DF93C5
:100A900086E090E09093C0038093BF030E944810CB
:100AA000EC01EFEAF2E084E0DF011D928A95E9F7BC
:100AB0000E94EE131092C0031092BF03CE01DF918B
:100AC000CF9108958091C10308958091AA0308955C
:100AD0006093A8017093A9018093AA019093AB0140
:100AE00090E080E008954F925F926F927F928F9294
:100AF0009F92AF92BF92CF92DF92EF92FF92CF93ED
:100B0000DF9300D000D0CDB7DEB74B015C016901A7
:100B10007A010E94B70E8823E9F0809071079090C7
:100B20007207A0907307B0907407C501B4010F90CD
:100B30000F900F900F90DF91CF91FF90EF90DF908B
:100B4000CF90BF90AF909F908F907F906F905F906D
:100B50004F900895C701B6010E94B70E8111DDCFF5
:100B6000C501B4010E94720E8111D7CFC701B60131
:100B70000E94720E8111D9CF20E030E0A901C70197
:100B8000B6010E94BE2E87FF4CC0C701B6010E946D
:100B9000AB2E2B013C01A3019201C701B6010E94BB
:100BA000BE2E882309F44CC0A7019601C501B401EB
:100BB0000E94C52E2B013C01E89477F820E030E03C
:100BC00040E05FE3C301B2010E94472E0E949B2FC9
:100BD0009B01AC01C301B2010E94462E9B01AC01F6
:100BE0005F7729833A834B835C8320E030E040E0E9
:100BF00054E3C301B2010E94EE309B01AC01698154
:100C00007A818B819C810E94EA301816CCF020E01A
:100C100030E0A901C501B4010E94EE304B015C0136
:100C200084CFC701B6010E949B2F2B013C0120E01D
:100C300030E0A901C701B6010E94BE2E8111ABCFE1
:100C4000A7019601C501B4010F900F900F900F906E
:100C5000DF91CF91FF90EF90DF90CF90BF90AF905A
:100C60009F908F907F906F905F904F900C94B52FD6
:100C7000CF92DF92EF92FF926B017C019F7720E091
:100C800030E040E859E50E94BE2E87FF2BC020E0EF
:100C900030E040E05FE3C701B6010E94EA3087FD23
:100CA0000EC020E030E040E05FE3C701B6010E94E3
:100CB000472EFF90EF90DF90CF900C949B2F20E079
:100CC00030E040E05FEBC701B6010E94EA30181641
:100CD00084F420E030E0A901C701B6010E94EE30A3
:100CE0006B017C01C701B601FF90EF90DF90CF90C0
:100CF000089520E030E040E05FE3C701B6010E94C4
:100D0000462EFF90EF90DF90CF900C94AB2E2F9259
:100D10003F924F925F926F927F928F929F92AF928B
:100D2000BF92CF92DF92EF92FF920F931F93CF93D8
:100D3000DF93CDB7DEB72A970FB6F894DEBF0FBEAC
:100D4000CDBFC0904401D0904501E0904601F090A5
:100D50004701A701960160912507709126078091B0
:100D60002707909128070E94BE2E882341F0C09249
:100D70002507D0922607E0922707F092280781E006
:100D800090E016DDBC01990F880B990B0E94602F33
:100D900020915001309151014091520150915301E5
:100DA0000E94EE302091540130915501409156013E
:100DB000509157010E94EE306093ED067093EE065D
:100DC0008093EF069093F0062091580130915901DD
:100DD00040915A0150915B010E94EE3020915C01DC
:100DE00030915D0140915E0150915F010E94EE30B3
:100DF0002B013C014092F1065092F2066092F306FC
:100E00007092F406E0918403F0918503C080D18054
:100E1000E280F3808090410790904207A0904307C2
:100E2000B0904407A7019601B401C5010E94EA30C1
:100E300087FD7CC2A70196016091490770914A071E
:100E400080914B0790914C070E94EA3087FD6EC25B
:100E50001092F5061092F6061092F7061092F80618
:100E60008090480190904901A0904A01B0904B01B8
:100E7000A501940160911B0770911C0780911D07CB
:100E800090911E070E94BE2E882341F080921B077E
:100E900090921C07A0921D07B0921E0790E080E080
:100EA00087DCBC01990F880B990B0E94602F209161
:100EB00060013091610140916201509163010E9493
:100EC000EE302091640130916501409166015091AE
:100ED00067010E94EE3020916801309169014091D4
:100EE0006A0150916B010E94EE3020916C013091AB
:100EF0006D0140916E0150916F010E94EE302B0107
:100F00003C014092F9065092FA066092FB067092FC
:100F1000FC068090510790905207A0905307B09024
:100F20005407A7019601B401C5010E94EA3087FD6C
:100F30004FC2A70196016091590770915A0780919D
:100F40005B0790915C070E94EA3087FD41C21092D6
:100F5000FD061092FE061092FF0610920007C09048
:100F6000F106D090F206E090F306F090F40620919E
:100F70007001309171014091720150917301C7016C
:100F8000B6010E94EA3018160CF073C2809014016A
:100F900090901501A0901601B090170120911801B2
:100FA0003091190140911A0150911B01C701B601FE
:100FB0000E94472EA501940196DD20911C013091DD
:100FC0001D0140911E0150911F010E94472E69830F
:100FD0007A838B839C8320917401309175014091B9
:100FE0007601509177016091F9067091FA0680912F
:100FF000FB069091FC060E94472E6B017C01AC0120
:101000009B01609178017091790180917A019091B2
:101010007B010E94BE2E87FF4CC240902C01509055
:101020002D0160902E0170902F01209130013091A0
:1010300031014091320150913301C701B6010E9444
:10104000472EA30192014FDD2091340130913501EB
:1010500040913601509137010E94472E6B017C016F
:101060002BED3FE049EC50E40E94EA3018160CF0FA
:1010700040C22BED3FE049EC50E4C701B6010E94AD
:10108000462E162F7A878987092F612F7A858985C1
:10109000902F0E94C22E2B013C018090FD06909063
:1010A000FE06A090FF06B0900007AC019B01C501B1
:1010B000B4010E94EE3020E030E0A9010E94EA3045
:1010C00022242394312C87FF03C022242A94322C1B
:1010D000A5019401C501B4010E94EE3022E632EC74
:1010E0004DED56E30E94EE306D837E838F839887AB
:1010F00020E030E040E85FE3C301B2010E94462EE9
:1011000029E437E141E35BE30E94EE309B01AC014F
:101110006D817E818F8198850E94472E9B01AC0155
:1011200060E070E0CB010E94462E2B013C01209133
:101130007C0130917D0140917E0150917F01609151
:1011400010017091110180911201909113010E9480
:10115000EE309B01AC01C301B2010E94EE302B01C5
:101160003C01B101330C880B990B0E94602F9B014D
:10117000AC01C301B2010E94EE306093110770937D
:101180001207809313079093140723E13AE342E98F
:101190005EE3612F7A858985902F0E94BE2E1816F6
:1011A000A4F023E13AE342E95EEB612F7A85898579
:1011B000902F0E94EA3087FD08C01092110710920C
:1011C000120710921307109214072091800130919A
:1011D00081014091820150918301C701B6019F773F
:1011E0000E94EA3018160CF09BC120911107309133
:1011F0001207409113075091140760914C017091B0
:101200004D0180914E0190914F010E94EE3060930C
:1012100001077093020780930307909304072091BE
:101220000107309102074091030750910407609134
:1012300084017091850180918601909187010E94BF
:10124000EE3060930507709306078093070790932D
:1012500008072091900130919101409192015091A5
:1012600093010E94EA3018160CF0AFC1409088013B
:101270005090890160908A0170908B01A1E0AD834C
:1012800020E030E0A901C301B2010E94BE2E81110D
:101290001D826D8187E00E94A200C301B201E8DCDB
:1012A0002B013C0120E030E040E853E40E94BE2ED8
:1012B0006FEF87FF0EC020E030E0A901C301B2014B
:1012C0000E94EA3060E087FD04C0C301B2010E94C1
:1012D000322F88E00E94A200409005075090060738
:1012E0006090070770900807809194019091950194
:1012F000A0919601B09197018D839E83AF83B887AB
:101300009C01AD01C301B2010E94EA3018160CF035
:1013100065C18D819E81AF81B885809305079093CB
:101320000607A0930707B09308076CC1009149070F
:1013300010914A0720914B072D8330914C07398338
:1013400098014D815981B401C5010E94BE2EA701AB
:10135000960187FF2EC0B8018D8199810E94BE2E13
:1013600087FD2DC0209145073091460740914707E2
:10137000509148078401AD82B982C301B2010E9435
:10138000462E4B015C0198014D815981C701B60180
:101390000E94462E9B01AC01C501B4010E94C52EDE
:1013A0006093F5067093F6068093F7069093F8061F
:1013B00057CDB401C5010E94EA3087FDD3CF2091FB
:1013C0004D0730914E0740914F0750915007D5CFB0
:1013D0000091590710915A0780915B078D83909176
:1013E0005C0799839801AC01B401C5010E94BE2E2F
:1013F000A701960187FF2EC0B8018D8199810E94B7
:10140000BE2E87FD2DC02091550730915607409183
:101410005707509158078401AD82B982C301B201C8
:101420000E94462E4B015C0198014D815981C701F4
:10143000B6010E94462E9B01AC01C501B4010E9479
:10144000C52E6093FD067093FE068093FF06909371
:10145000000785CDB401C5010E94EA3087FDD3CFD6
:1014600020915D0730915E0740915F0750916007C2
:10147000D5CF8090200190902101A0902201B090C2
:1014800023012091240130912501409126015091A2
:101490002701C701B6010E94472EA501940123DB55
:1014A000209128013091290140912A0150912B016E
:1014B0008CCD409038015090390160903A01709085
:1014C0003B0120913C0130913D0140913E01509102
:1014D0003F01C701B6010E94472EA301920103DB21
:1014E00020914001309141014091420150914301CE
:1014F000B3CD20E030E0A901C701B6010E94BE2EA5
:1015000087FF09C02BED3FE049EC50E4C701B6016D
:101510000E94472EB6CD1C2DDA86E9860F2DB5CD5B
:10152000609100017091010180910201909103018D
:101530009058A70196010E94EE302B013C0160916A
:101540000401709105018091060190910701905866
:10155000A50194010E94EE309B01AC01C301B201D0
:101560000E94472E2B013C016091080170910901F6
:1015700080910A0190910B01905829813A814B8109
:101580005C810E94EE309B01AC01C301B2010E945C
:10159000472E2B013C0160910C0170910D0180914F
:1015A0000E0190910F0190582091F5063091F606AA
:1015B0004091F7065091F8060E94EE309B01AC0175
:1015C000C301B2010E94472E22CE40908C01509060
:1015D0008D0160908E0170908F0150CE80919801A6
:1015E00090919901A0919A01B0919B018D839E8366
:1015F000AF83B8879C01AD01C301B2010E94BE2E2A
:1016000087FD87CE6BE070E080E090E00E94E00014
:101610009E838D839093400780933F0740900507FA
:10162000509006076090070770900807E89477F8D5
:1016300020E030E04FE753E4C301B2010E94BE2E28
:10164000181634F4412C512C8FE7682E83E4782E41
:10165000B301A2018D819E810E94A900A70196017C
:1016600060919C0170919D0180919E0190919F01DC
:101670000E94EE306093090770930A0780930B076E
:1016800090930C0729813A814B815C816091A00184
:101690007091A1018091A2019091A3010E94EE306E
:1016A00060930D0770930E0780930F0790931007B8
:1016B0006091ED067091EE068091EF069091F00634
:1016C0009F772091A4013091A5014091A6015091EE
:1016D000A7010E94EA3018161CF481E0809383036E
:1016E0008091410790914207A0914307B091440730
:1016F00089839A83AB83BC83C0906D07D0906E07BB
:10170000E0906F07F0907007A0918403B09185037B
:10171000BE83AD838D909D90AD90BC90A701960146
:1017200069817A818B819C810E94BE2E8111B7C014
:101730008092410790924207A0924307B0924407DB
:10174000E5E4F7E08091F1069091F206A091F306AE
:10175000B091F40680839183A283B3838091510773
:1017600090915207A0915307B091540789839A83AF
:10177000AB83BC839C01AD01C701B6010E94BE2EA4
:10178000AD81BE818D909D90AD90BC908111ADC01A
:101790008092510790925207A0925307B09254073B
:1017A000E5E5F7E08091F9069091FA06A091FB0635
:1017B000B091FC0680839183A283B383409171032F
:1017C00050917203609173037091740390E080E014
:1017D000F9D84091790350917A0360917B0370911D
:1017E0007C0381E090E0EED8609171037091720308
:1017F00080917303909174036F5F7F4F8F4F9F4F62
:1018000060937103709372038093730390937403D6
:10181000E0918403F0918503FA83E9830E945E2FAF
:101820009B01AC0160917503709176038091770301
:10183000909178030E94EE30A981BA816D937D93D7
:101840008D939C9313978091790390917A03A09143
:101850007B03B0917C030196A11DB11D8093790398
:1018600090937A03A0937B03B0937C032A960FB6E0
:10187000F894DEBF0FBECDBFDF91CF911F910F91C6
:10188000FF90EF90DF90CF90BF90AF909F908F90A0
:101890007F906F905F904F903F902F900895409071
:1018A000490750904A0760904B0770904C07A3017E
:1018B0009201C701B6010E94BE2E81110BC0809219
:1018C000490790924A07A0924B07B0924C07EDE46B
:1018D000F7E038CFA301920169817A818B819C81E5
:1018E0000E94BE2E87FFEBCF23CF40905907509028
:1018F0005A0760905B0770905C07A3019201C701D3
:10190000B6010E94BE2E81110BC0809259079092A1
:101910005A07A0925B07B0925C07EDE5F7E042CF73
:10192000A301920169817A818B819C810E94BE2EE4
:1019300087FFEBCF2DCF8F929F92AF92BF92DF9216
:10194000EF92FF920F931F93CF93DF9384E090E089
:1019500092D1E9EDF2E081E893E097838683C4E8D1
:10196000D3E0D0931A03C093190305E713E0158B56
:10197000048BF0934403E0934303F583E48321E075
:1019800030E0DC012D933C9389EE91E093878287D0
:1019900026E833E03983288340E050E060E87FEBBD
:1019A00040937D0350937E0360937F037093800385
:1019B0004AE057ED63E27CE3D8014D935D936D936C
:1019C0007C931397CFE5D3E080E19DE1A0EABCEEE4
:1019D00088839983AA83BB838DE098E0AEE5B5EA5E
:1019E0008093630390936403A0936503B0936603AD
:1019F00089E492E4A9E9B5E58093670390936803CD
:101A0000A0936903B0936A0382EE97E4ADEABCE564
:101A100080936B0390936C03A0936D03B0936E035C
:101A2000ADECB2E0B383A283E3EBF2E01196FC935A
:101A3000EE938BEF91E091838083938382839583F0
:101A4000848397838683918780879387828795870E
:101A5000848797878687918B808B938B828B958BDE
:101A6000848B978B868B918F808F8FE693E0159672
:101A70009C938E9314971396DC93CE93129717969C
:101A80003C932E93169780916D0790916E07A091CD
:101A90006F07B0917007C5E1D7E08CA79DA7AEA7EF
:101AA000BFA78CAB9DABAEABBFAB8CAF9DAFAEAFAA
:101AB000BFAF8093590790935A07A0935B07B093E9
:101AC0005C071A868091440190914501A0914601DE
:101AD000B0914701888B998BAA8BBB8B812C912C61
:101AE000540183948B869C86AD86BE8645E050E08B
:101AF00063E070E081E090E00E941203DD24D39463
:101B0000DF8618828091480190914901A0914A0195
:101B1000B0914B018E839F83A887B98789829A826F
:101B2000AB82BC8244E050E062E070E090E080E094
:101B30000E941203DD821C8E8D8E9E8EAF8EB8A207
:101B400061E087E00E949A00D9A21C8A8D8A9E8A51
:101B5000AF8AB88E61E088E00E949A00D98E1CA2FC
:101B60008DA29EA2AFA2B8A6E12CF12C8701A801FC
:101B700097016BE070E080E090E00E9424019BA759
:101B80008AA7D9A6DF91CF911F910F91FF90EF9077
:101B9000DF90BF90AF909F908F90089580911F0726
:101BA000811103C081E080931F0780911507811187
:101BB00003C081E08093150780913107811103C034
:101BC00081E08093310780912907811103C081E072
:101BD000809329078091390781112EC081E080937D
:101BE000390780913A0790913B07A0913C07B0914B
:101BF0003D070197A105B105F9F480913E078823BF
:101C0000D9F06BE070E080E090E00E94E0009093FB
:101C1000400780933F0740E050E0BA010E94A900CE
:101C20006BE070E080E090E00E94E000909340075D
:101C300080933F070C947501089560E070E080E8A0
:101C40009FE7089560E070E080E89FE7089560E016
:101C500070E080E89FEF089560E070E080E89FEF1B
:101C6000089560E070E080EC9FEF089560E070E020
:101C700080EC9FEF0895F5DF609371077093720712
:101C80008093730790937407F1DF609365077093F7
:101C900066078093670790936807CFDF60936D07AF
:101CA00070936E0780936F0790937007CBDF6093FC
:101CB000690770936A0780936B0790936C07C7DF7F
:101CC00060937507709376078093770790937807F2
:101CD000C3DF6093790770937A0780937B079093B3
:101CE0007C070895CF92DF92EF92FF92CF936B0122
:101CF0007C01AC019B0160916D0770916E07809132
:101D00006F07909170070E94BE2EC1E0882371F08A
:101D1000A70196016091750770917607809177070A
:101D2000909178070E94BE2E8111C0E08C2FCF9138
:101D3000FF90EF90DF90CF9008950F931F938B014A
:101D40009C010027112720783F77011511052048B5
:101D50003F4749F4AB01BC016F77772781E0452B02
:101D6000462B472B09F480E01F910F910895E5CF92
:101D70004F925F926F927F928F929F92AF92BF929B
:101D8000CF92DF92EF92FF920F931F93F8944090BF
:101D90009A0350909B0360909C0370909D03C090A9
:101DA0008E03D0908F03E0909003F0909103413028
:101DB000510509F0A4C09B01AC012419350946095D
:101DC000570929013A010091960310919703209138
:101DD00098033091990348015901840C951CA61C65
:101DE000B71C80169106A206B306A0F400919203D8
:101DF0001091930320919403309195030F5F1F4F2F
:101E00002F4F3F4F0093920310939303209394031B
:101E1000309395038092960390929703A092980333
:101E2000B09299030091920310919303209194032F
:101E30003091950380929E0390929F03A092A003FD
:101E4000B092A1030093A2031093A3032093A403D1
:101E50003093A50360939A0370939B0380939C0334
:101E600090939D03A0E1B7E2A30192010E94033683
:101E70006C0D7D1D8E1D9F1D60938E0370938F03CF
:101E800080939003909391030091A8011091A90170
:101E90002091AA013091AB010F3F1F4F2F4F3F4FB1
:101EA000F1F00091A8011091A9012091AA013091AF
:101EB000AB010E3F1F4F2F4F3F4F89F0C090A8013D
:101EC000D090A901E090AA01F090AB0121E08C1420
:101ED0009D04AE04BF0408F420E02093AA03789484
:101EE0001F910F91FF90EF90DF90CF90BF90AF9038
:101EF0009F908F907F906F905F904F9008954B01CF
:101F00005C0184189508A608B708A3019201261B56
:101F1000370B480B590B6415750586059705D0F0EE
:101F200082169306A406B50640F420E030E0A9012D
:101F300081149104A104B10491F4A0E1B7E20E94DC
:101F40000336A7019601261B370B480B590BCA0114
:101F5000B901C5CF82169306A406B50670F7A0E1B5
:101F6000B7E2A50194010E9403366C0D7D1D8E1D04
:101F70009F1DB5CFFDCECF93DF9300D000D0CDB75E
:101F8000DEB71C821B821A8219821092A60310925D
:101F9000A7031092A8031092A903BE016F5F7F4FA1
:101FA000CE0103960E94B12C69817A818B819C813C
:101FB0000E94A125009761F4BE016F5F7F4FCE01A3
:101FC00003960E94BD2C69817A818B819C812DD5DD
:101FD0000F900F900F900F90DF91CF910895FF9287
:101FE0000F931F93CF93DF93082F60E070E0CB0136
:101FF0000E946532FF24F3940E948C24EC01892B0B
:1020000089F010E0CE3F8FEFD80769F0002361F12F
:1020100060E070E0CB010E94653281E090E0892BA6
:1020200059F322C011E024D5EC01892B21F0CE3FD9
:102030008FEFD80759F711111EC011E0229609F44D
:1020400010E00E943D24EC01892B21F0CE3F8FEF60
:10205000D807E1F6111111C011E0CE3F8FEFD8077C
:1020600009F410E001110BC0CE01DF91CF911F9157
:102070000F91FF90089511E0E4CF11E0F3CF60E0FD
:1020800070E0CB010E9465321F25812F90E0C7CF01
:10209000CF93DF938091AA03882321F060E070E062
:1020A000CB014DD636D6D0E0C0E0892B71F06AE086
:1020B00070E080E090E00E94653281E090DF29D6F8
:1020C0002196C03D27E0D20781F728D60E94F5254A
:1020D0001092C2031092C1031092BB031092BC0372
:1020E0001092BD031092BE031092B7031092B80372
:1020F0001092B9031092BA031092B3031092B40372
:102100001092B5031092B6031092AF031092B00371
:102110001092B1031092B2031092AB031092AC0371
:102120001092AD031092AE034EEF5FEF6FEF7FEFB3
:102130004093A8015093A9016093AA017093AB0149
:102140001092AA03EEE9F3E028E0DF011D922A9540
:10215000E9F710929A0310929B0310929C0310923D
:102160009D03109296031092970310929803109279
:102170009903109292031092930310929403109279
:10218000950310928E0310928F0310929003109279
:102190009103DF91CF9108951092CE031092CF0357
:1021A0001092D0031092D1031092CD038091D603E8
:1021B0009091D7039093CC038093CB031092CA03E2
:1021C0001092C9031092C5031092C6031092C70360
:1021D0001092C8031092D3031092D20390E080E0D3
:1021E0000895CF92DF92EF92FF920F931F93CF93B8
:1021F0008C01019709F055C02091D6033091D70387
:102200008091CB039091CC034091D6035091D7039A
:102210005093CC034093CB032817390781F01092D9
:10222000CA031092C9031092C5031092C6031092FC
:10223000C7031092C8031092D3031092D203809167
:10224000D6039091D703019761F58091D2039091C5
:10225000D303892B21F48091AC01811112C08091AC
:10226000D2039091D3030197E1F48091C50390913B
:10227000C603A091C703B091C8030197A105B1059A
:1022800081F41092C5031092C6031092C7031092F6
:10229000C8031092AC0182E090E09093D303809346
:1022A000D2038091D6039091D703019709F01CC106
:1022B0008091EC039091ED038017910709F014C110
:1022C0008091E8039091E903A091EA03B091EB03B8
:1022D000009709F409C12091E70321110DC0409135
:1022E000E8035091E9036091EA037091EB03452BF9
:1022F000462B472B09F4F8C02091D2033091D30329
:102300002230310509F0F0C02091C9032111ECC041
:10231000FC01C080D180E280F3808091CD038823CE
:1023200009F4D3C08091D9039091DA03892B09F481
:10233000FEC02091D9033091DA0381E022303105CB
:1023400009F080E02091D9033091DA03C1E0213017
:10235000310549F02091D9033091DA03C1E02230F0
:10236000310509F0C0E0882309F456C02091E30349
:102370003091E4034091E5035091E603C701B601B3
:102380000E94EA3087FD14C02091E3033091E403FA
:102390004091E5035091E6036091CE037091CF0325
:1023A0008091D0039091D1030E94BE2E87FD22C060
:1023B0002091E3033091E4034091E5035091E6035B
:1023C000C701B6010E94EA30181634F52091E303E4
:1023D0003091E4034091E5035091E6036091CE0310
:1023E0007091CF038091D0039091D1030E94BE2EB3
:1023F000811112C08091DB039091DC03A091DD0379
:10240000B091DE03892B8A2B8B2B19F481E080930A
:10241000CA0381E08093C903CC2309F456C02091FC
:10242000E3033091E4034091E5035091E603C701D3
:10243000B6010E94BE2E87FF14C02091E3033091A5
:10244000E4034091E5035091E6036091CE0370915F
:10245000CF038091D0039091D1030E94EA3087FF8F
:1024600022C02091E3033091E4034091E5035091B1
:10247000E603C701B6010E94BE2E811126C020913D
:10248000E3033091E4034091E5035091E60360914A
:10249000CE037091CF038091D0039091D1030E941D
:1024A000EA30181694F48091DB039091DC03A0913C
:1024B000DD03B091DE03892B8A2B8B2B19F481E08D
:1024C0008093CA0381E08093C90381E09091C9039E
:1024D000911180E08093CD03C092CE03D092CF03C0
:1024E000E092D003F092D1030130110509F067C1E9
:1024F0008091D2039091D303892BD9F41092D80301
:102500001092C9038091AC01882379F082E090E0B9
:102510009093D3038093D2031092AC012091D60301
:102520003091D70381E0232BE9F080E01BC081E0EC
:1025300009CF1092AC018091D803882349F0109202
:10254000CA031092D3031092D2031092D803EDCF96
:102550008091D6039091D703892BE1F08091C90334
:102560001092C9032091D2033091D3032230310558
:1025700009F45EC088F42115310509F448C0213002
:10258000310509F4F3C01092CA031092C9031092E6
:10259000D80338C081E0E6CF2330310509F4B1C05B
:1025A0002430310581F74091C5035091C6036091F5
:1025B000C7037091C803411551056105710561F0AC
:1025C00041505109610971094093C5035093C603F5
:1025D0006093C7037093C8034091C5035091C6032D
:1025E0006091C7037091C803452B462B472BD9F444
:1025F0002091D4033091D5032130310509F046C034
:102600001092CA031092D3031092D2030CC080918F
:10261000AC01882341F082E090E09093D303809353
:10262000D2031092AC011092C3038091CA03CEC0B2
:102630008823C9F38091DB039091DC03A091DD0333
:10264000B091DE03181619061A061B060CF07DC0A1
:102650008091D6039091D703019709F076C08091BD
:10266000DB039091DC03A091DD03B091DE03809346
:10267000C5039093C603A093C703B093C80383E038
:1026800090E09093D3038093D203CDCF4091DF03AA
:102690005091E0036091E1037091E203452B462BDA
:1026A000472BA9F01092CA038091DF039091E003B9
:1026B000A091E103B091E2038093C5039093C60318
:1026C000A093C703B093C80381E090E0DACF8823DA
:1026D00099F08091AD019091AE01A091AF01B091C0
:1026E000B0018093C5039093C603A093C703B09332
:1026F000C80384E090E0C5CF1092CA0382E090E066
:10270000C0CF8091C5039091C603A091C703B0913B
:10271000C8030097A105B10559F00197A109B109B6
:102720008093C5039093C603A093C703B093C803D7
:102730008091C5039091C603A091C703B091C803CF
:10274000892B8A2B8B2B09F06ECF8091AD01909154
:10275000AE01A091AF01B091B001892B8A2B8B2BD8
:1027600009F44ECF81E08093CA03B3CF4091C503F3
:102770005091C6036091C7037091C803411551057C
:102780006105710561F0415051096109710940937A
:10279000C5035093C6036093C7037093C803409169
:1027A000C5035091C6036091C7037091C803452BC0
:1027B000462B472B09F037CF8111C7CF9FCF809190
:1027C000C303882309F431CF8091C403CF911F91B3
:1027D0000F91FF90EF90DF90CF9008951092CE036D
:1027E0001092CF031092D0031092D1031092CD0318
:1027F0001092D3031092D2031092CC031092CB0309
:102800001092ED031092EC031092CA031092C903C8
:102810001092C5031092C6031092C7031092C8030A
:102820001092C4031092C3031092E8031092E903BC
:102830001092EA031092EB031092E7031092E30365
:102840001092E4031092E5031092E60388EE93E001
:10285000A0E0B0E08093AD019093AE01A093AF01F2
:10286000B093B0011092DF031092E0031092E103E5
:102870001092E2031092DB031092DC031092DD034E
:102880001092DE031092DA031092D90381E0809354
:10289000AC011092D8031092D7031092D603109275
:1028A000D5031092D40390E080E008958091D60380
:1028B0009091D703892B19F58091AC01882351F0B1
:1028C0008091D803811106C081E08093C403809376
:1028D000C30308952091D8033091AC0181E090E0CA
:1028E000332311F090E080E030E082239323892BA2
:1028F00021F01092C40381E0EACF1092C30308953F
:1029000082E090E0FA01918380838FEF9FEF08953A
:10291000CF93DF93EA01009711F00E9415271982E7
:10292000188290E080E0DF91CF910895DB0100975D
:1029300019F48FEF8C9308952EEF2C930F968F3010
:10294000910508F033C0FC01E855FB4E0C94FD35B1
:10295000D414D214D014CE14CC14C814CA14C6146F
:10296000C414C214BF14BB14B714BD14D61480E32E
:1029700011968C93089589E2FBCF82E2F9CF1196EC
:102980001C92089583E2F4CF81E2F2CF81E1F0CF8F
:1029900087E2EECF8AE2ECCF80E1EACF84E2E8CFB3
:1029A00088E2E6CF86E2E4CF81E3E2CF80E2E0CFC7
:1029B0008091FA039091FB0308959093FB03809319
:1029C000FA0308958091F90308959091F903892BF2
:1029D0008093F9030895982F90958091F9038923A6
:1029E0008093F90308958091F80308958091F60388
:1029F0009091F70308956115710559F0FB0130E0DE
:102A000020E070E060E02417350719F061157105CA
:102A100011F0CB010895A081B181A817B90709F47D
:102A2000BF012F5F3F4F3696EECF8091FC0381119F
:102A30001CC062D268D29093EF038093EE030E9491
:102A4000171F0E94291F9093F3038093F2030E94A3
:102A5000A7230E94AE239093F1038093F00381E0BB
:102A60008093FC0390E080E0089584EF9FEF089549
:102A70008F929F92AF92BF92CF92DF92EF92FF928E
:102A80000F931F93CF93DF93CDB7DEB72A970FB67F
:102A9000F894DEBF0FBECDBF1A86198618861F8236
:102AA0001E821D821C821B821A8219828091FC0365
:102AB00007EF1FEF882309F49CC08E010D5F1F4FA5
:102AC0009E012B5F3F4FAE01495F5F4FBE01675FC5
:102AD0007F4F90E080E00E9427258C01009721F035
:102AE0000596029708F0DBC029853A852115310546
:102AF00009F402C1ED80FE804B815C81B701640F57
:102B0000751F8F8198858617970708F4F5C0E20E28
:102B1000F31ED7019C91903C09F07FC042305105D3
:102B200008F47BC011968C914091FA035091FB03FD
:102B3000452B09F49CC0913F08F071C02CE1290F8E
:102B40002D3008F48BC02DE2290F203108F489C004
:102B5000903C21F48150823008F483C088E3890FCF
:102B60008B3008F481C096E9C92E94E1D92EE0E8B3
:102B7000F4E16D817E81AE014F5F5F4F89859A855B
:102B800009955C01C114D104A1F189809A80811456
:102B9000910479F18B819C818815990508F487C08F
:102BA00010E000E04B815C8170E060E0C7010E94B2
:102BB000253601151105E9F449815A8169857A851F
:102BC0008D819E81680F791FC501F6010995E98005
:102BD000FA800D811E812F81388549855A856FEFD6
:102BE0007FEF81E090E00E94C3248C01892B09F0E3
:102BF00056C0C8012A960FB6F894DEBF0FBECDBFEF
:102C0000DF91CF911F910F91FF90EF90DF90CF90C8
:102C1000BF90AF909F908F90089580E085CF30E077
:102C200020E0220F331FF901E251FC4F0190F081A7
:102C3000E02D309709F497CF892F90E00995009700
:102C400009F491CFDC011296ED91FC911397149643
:102C5000CD90DC90309709F08CCF1FC021E030E0A0
:102C6000E0CF22E030E0DDCF23E030E0DACFD12C3E
:102C7000C12CE8E8F4E19F3F09F07BCFE091EE033F
:102C8000F091EF03309721F4C90104EF1FEF0CC05E
:102C90008FEF90E009950097A9F604EF1FEF898563
:102CA0009A85009709F4A5CF0E941527A2CF0E940C
:102CB000F0258C0189859A850E94152770E060E0D7
:102CC000C4010E94892598878F830E94C0249E8317
:102CD0008D836F8178856115710559F0C8010E9457
:102CE000A1289A87898706EF1FEF892B09F058CF13
:102CF00059CF08EF1FEF56CF08EF1FEFD0CF20912D
:102D0000FC03222319F020E00C942E1F87EF9FEF85
:102D100008958091FA039091FB0308950E94B323D4
:102D20000E940D23F5D0EEEEF3E088E0DF011D9266
:102D30008A95E9F71092FC0390E080E008950C94E6
:102D40006A2121E040E050E0BA010C942E1F86E099
:102D500090E0FA019183808390E080E0089547E05D
:102D600050E06EEF71E047CEDF92EF92FF920F934B
:102D70001F93CF93DF938A01EC01C60FD71FE0901A
:102D80000004F0900104D9800E94D825D8161906B5
:102D900078F082E090E0F801918380838EEF9FEFDE
:102DA000DF91CF911F910F91FF90EF90DF900895E9
:102DB000EF2841F482E090E0F8019183808384EF72
:102DC0009FEFEECF89818093FF0390E00196F80199
:102DD0009183808390E080E0E3CFCF93DF93EA019B
:102DE0000E941B22882321F00E94E5250E941C22BC
:102DF00082E090E0998388838BEF9FEFDF91CF9102
:102E00000895CF93DF93EB0186E0FB0111928A9541
:102E1000E9F78FEF8883D6DD8983E5DD8A83E6DDF8
:102E20009D838C83DF91CF910895CF93DF93EA0147
:102E30000E941E22811109C082E090E0998388835C
:102E400085EF9FEFDF91CF91089590E080E0B5DDB1
:102E500081E090E09983888390E080E0F3CF0F9346
:102E60001F93CF93DF93EA018C01060F171F0E9477
:102E70001E2281110BC082E090E09983888385EF48
:102E80009FEFDF91CF911F910F910895F8018181FC
:102E9000823038F082E090E0998388838EEF9FEF54
:102EA000F0CF81E090E089DD88E090E0998388832D
:102EB00090E080E0E6CFCF93DF930097D1F4EB0171
:102EC000FB01329686E0DF011D928A95E9F78FEFCC
:102ED000888385E089831A820E94D8258B830E948B
:102EE000D7259D838C8381E08E838F83DF91CF9163
:102EF0000895DF91CF911ACD8FEA96E19093FE036A
:102F00008093FD0308958091FD039091FE03089541
:102F10001092FE031092FD03089580910004909199
:102F200001040895411105C06115710581059105E0
:102F300061F0609300047093010480930204909305
:102F400003044093040481E0089580E00895FF9213
:102F50000F931F93CF93DF938A01EC01C60FD71F06
:102F6000F9800E94D825F816190668F082E090E0F2
:102F7000F801918380838EEF9FEFDF91CF911F91B6
:102F80000F91FF9008956C817D818E819F814B818F
:102F9000C9DF811108C082E090E0F801918380834D
:102FA00084EF9FEFEACF89818093FF0390E0019641
:102FB000F8019183808390E080E0DFCFCF93DF93AF
:102FC000EA01FC01E60FF71F648175818681978114
:102FD0004381A8DF811109C082E090E09983888352
:102FE00084EF9FEFDF91CF91089581E090E0998386
:102FF000888390E080E0F6CFE0E0F4E0408151810A
:1030000062817381480F511D611D711D4083518381
:10301000628373830895CF93C091FF034C2F50E0D8
:10302000609100047091010401960E941C368C2F5F
:10303000E3DF1092FF03CF910895009799F48091F8
:103040000004909101042FEFFB012083892B59F09C
:103050002091FF0330E02F5F3F4F2417350719F40D
:10306000CB01D9CF63CC0895009799F480910004E7
:10307000909101042FEFFB012083892B59F02091BF
:10308000FF0330E02F5F3F4F2417350719F4CB01C2
:10309000C2CF4CCC089523E1AC01249FC001259FF1
:1030A000900D1124E0910904F0910A04E80FF91F32
:1030B000238134812250310981E02230310508F02A
:1030C00080E008950F931F93CF93DF9300910B043B
:1030D00010910C04D0E0C0E080E00C171D0749F40B
:1030E00091E0811190E0892FDF91CF911F910F9195
:1030F00008958111F5CFCE01CEDF2196EECFA091BC
:103100000904B0910A04109729F120910B04309121
:103110000C0482179307F0F453E1589F9001599FD4
:10312000300D1124A20FB31FED91FC911197309730
:1031300089F012968C91681768F48DE0689FE00D15
:10314000F11D112480819181892B21F081E09281F0
:10315000491708F080E008959C0143E1429FC001B7
:10316000439F900D1124E0910904F0910A04E80FA7
:10317000F91F8385823091F481E090E0658176814A
:103180004091B1015091B2016417750711F490E0BC
:1031900080E0892B19F081E0232B09F080E008956D
:1031A000FC01A081B1818DE0689FA00DB11D1124AB
:1031B00013964D915C9185859685489F9001499F16
:1031C000300D589F300D1124C9010196611103C0C3
:1031D000478144FD04960895EF92FF920F931F9349
:1031E000CF93DF93EA01FC01E60FF71F0281138101
:1031F000E480F5804F2D6E2DC80181DF81110DC057
:1032000082E090E0998388838EEF9FEFDF91CF91EA
:103210001F910F91FF90EF900895C8013CDF882324
:1032200039F082E090E09983888388EF9FEFEECFBA
:103230001093B8010093B701E092B901F092BA017E
:1032400081E090E09983888390E080E0DFCFCF92A7
:10325000DF92EF92FF920F931F93CF93DF937A0148
:10326000EC01C60FD71FC090B701D090B8010091F4
:10327000B9011091BA01412F602FC60140DF8111C1
:1032800010C082E090E0F701918380838AEF9FEF86
:10329000DF91CF911F910F91FF90EF90DF90CF9032
:1032A0000895C601F8DE882341F082E090E0F7013E
:1032B0009183808388EF9FEFEBCF4C815D816E819E
:1032C0007F819A8189818F3F41F082E090E0F70110
:1032D000918380838EEF9FEFDBCFE3E1EC9D900144
:1032E000ED9D300D1124E0910904F0910A04E20FE4
:1032F000F31F0190F081E02D2DE0029FE00DF11D04
:1033000011240190F081E02D27E0129FE00DF11DC6
:103310001124808391838B818283438354836583CB
:1033200076831F5F1093BA0181E090E0F7019183EB
:10333000808390E080E0ACCFEF92FF920F931F93D9
:10334000CF93DF937A018C01060F171FC0910904F8
:10335000D0910A04209781F021E030E0F8018281C9
:10336000938140910B0450910C048417950710F041
:1033700030E020E0232B71F482E090E0F7019183AC
:1033800080838EEF9FEFDF91CF911F910F91FF9080
:10339000EF90089543E1489F9001499F300D11241B
:1033A000C20FD31F78DE882341F082E090E0F7015E
:1033B0009183808388EF9FEFE6CFF80124813581E8
:1033C00020383105C8F687818111D6CF4181842FFD
:1033D00090E08F7E009741F082E090E0F7019183CA
:1033E000808386EF9FEFCFCF4F833E832D8326814F
:1033F00028871986223010F421E0288721E030E068
:10340000F70131832083BFCF88E090E0FA019183F8
:10341000808390E080E00895FB018FEF808381E15D
:1034200081838FEF9FEF9383828380E890E0958381
:103430008483168217820895FB018FEF808391E0C9
:10344000918382839383848384E3858381E090E006
:10345000978386830895DF92EF92FF920F931F93D5
:10346000CF93DF93EA01FC01E60FF71F81818130E2
:1034700071F082E090E0998388838FEF9FEFDF9176
:10348000CF911F910F91FF90EF90DF90089582816F
:103490009381D4802581E680F78000910904109102
:1034A0000A040115110539F482E090E099838883BC
:1034B0008CEF9FEFE4CF40910B0450910C048417E4
:1034C000950738F082E090E0998388838EEF9FEF34
:1034D000D6CF892B39F082E090E09983888386EFFC
:1034E0009FEFCDCF8D2D8D7FB1F72130A1F781E0FA
:1034F000D11006C091E0E916F10431F080E004C07B
:10350000E2E0EE16F104D0F3882329F390E080E0A6
:10351000C2DD882339F082E090E09983888388EFC8
:103520009FEFADCFF801D38681E08487F686E586EC
:10353000108A178681E090E09983888390E080E08C
:103540009ECF4CE050E068E272E055CA8F929F92A5
:10355000BF92CF92DF92EF92FF920F931F93CF9380
:10356000DF93EA01FC01E60FF71F8281938104815A
:10357000B580E0910904F0910A04309791F482E05B
:1035800090E0998388838CEF9FEFDF91CF911F911B
:103590000F91FF90EF90DF90CF90BF909F908F9012
:1035A000089520910B0430910C048217930738F092
:1035B00082E090E0998388838EEF9FEFE6CF23E14E
:1035C000289F6001299FD00C1124EC0DFD1DE08087
:1035D000F180E114F10499F28281081748F78DE037
:1035E000089F80011124E00EF11EF7018081918176
:1035F000892B29F6BB20E1F2F7E0BF9E40011124A0
:10360000C4010E94DC26F70191838083E0910904C4
:10361000F0910A04EC0DFD1D0190F081E02DE00F0A
:10362000F11F80819181009739F482E090E09983C5
:1036300088838DEF9FEFA9CFA40170E060E00E9426
:1036400025368091090490910A04C80ED91EF6010E
:1036500080819181080F191FF801B28281E090E00A
:103660009983888390E080E090CFAF92BF92CF9211
:10367000DF92FF920F931F93CF93DF93EA01FC0138
:10368000E60FF71F82819381F48000910904109165
:103690000A040115110581F482E090E09983888382
:1036A0008CEF9FEFDF91CF911F910F91FF90DF90F3
:1036B000CF90BF90AF90089520910B0430910C04EF
:1036C0008217930738F082E090E0998388838EEF29
:1036D0009FEFE8CF2FEF2F0D2C3FA8F723E1289F76
:1036E0006001299FD00C11240C0D1D1DF801808153
:1036F0009181892B89F6FDE0FF9E50011124C501BF
:103700000E94DC26F80191838083E0910904F09106
:103710000A04EC0DFD1D80819181009739F482E04F
:1037200090E0998388838DEF9FEFBCCFA50170E077
:1037300060E00E942536E0910904F0910A04EC0D46
:10374000FD1DF28281E090E09983888390E080E023
:10375000A9CFCF92DF92EF92FF920F931F93CF9357
:10376000DF93860F971FFC0102811381809109046A
:1037700090910A04892B81F082E090E0FA01918314
:1037800080838CEF9FEFDF91CF911F910F91FF907E
:10379000EF90DF90CF900895C801B0E0A0E00197CE
:1037A000A109B1098F3F9F4FA105B10540F082E00B
:1037B00090E0FA01918380838EEF9FEFE4CF7A014E
:1037C00083E1809F6001819FD00C1124C6010E947B
:1037D000DC26EC01009741F482E090E0F701918350
:1037E00080838DEF9FEFCFCFA60170E060E00E9455
:1037F0002536D0930A04C093090410930C04009357
:103800000B0490E080E02FEF3FEF41E061E070E0DB
:103810008017910741F481E090E0F7019183808364
:1038200090E080E0B0CF3A8B298B1B864C877E8757
:103830006D87188A1F8601966396EACFEF92FF92F2
:103840001F93CF93DF93EC0110E0F12CE12C6A8100
:103850001617A8F070E0660F771FAE014F5E5F4F3E
:10386000C7010E944127009721F02FEF3FEF3A8BCD
:10387000298BDF91CF911F91FF90EF900895612FD9
:10388000CE018EDC61E070E00E948925E816F90621
:1038900008F47C011F5FDBCFF8942091070430917E
:1038A000080481E02115310509F080E0232B09F09F
:1038B000789408952F923F924F925F926F927F92E9
:1038C0008F929F92AF92BF92CF92DF92EF92FF9230
:1038D0000F931F93CF93DF933C01660E771EF30186
:1038E000828193814C01B12CA12CC0910904D0910B
:1038F0000A04209769F021E030E060910B04709198
:103900000C048617970710F030E020E0232BD1F449
:1039100082E090E0FA01918380838EEF9FEFDF9148
:10392000CF911F910F91FF90EF90DF90CF90BF90BC
:10393000AF909F908F907F906F905F904F903F904F
:103940002F9008958092BB019092BC01A092BD017E
:10395000B092BE0163E1689F9001699F300D112410
:10396000C20FD31FF3018181833040F082E090E0E9
:10397000FA019183808386EF9FEFD1CF2A012B81BB
:103980003C81232BF1F4288139819F8191FF2EC046
:10399000232B09F46FC020910E049A81422F490F06
:1039A0005527551FBA0141E050E06138710514F008
:1039B00050E040E0452B09F45DC02A87920F9093B8
:1039C0000E048150823008F481C066DF882309F438
:1039D000D8C0F3018181813009F48DC008F47BC027
:1039E000823009F4C6C090E080E0ADC0232B09F41A
:1039F00041C020910D049A81E22FE90FFF27FF1F9C
:103A000041E050E0ED3FF10514F050E040E0452B7F
:103A100089F12A87920F90930D04D3CFA081B181B1
:103A2000A20FB31F11966C91060F111D0196295F0D
:103A30003F4F8417950794F38D859E85089F10014D
:103A4000099F300C189F300C1124C114D104D1F4FB
:103A50008F8184FF17C00E94D725F5E02F0E311CFF
:103A600021E08215930508F420E0A701435F5F4F32
:103A700021110EC082E090E0F2019183808387EFF4
:103A80009FEF4DCF0E94D7252FEF221A320AE8CFA1
:103A900088819981E80EF91EF70114830383FFEFF3
:103AA000CF1ADF0A7A018A818C151D0409F00CF403
:103AB0008CCFE881F981EE0DFF1D428150E030E0AE
:103AC00020E010E000E090E080E0B3CFF12CE12CAA
:103AD000D12CC12CE8CF81E090E09C838B83F2DA7B
:103AE000882309F480CF81E090E00E94DD1480E417
:103AF0000E94EB1478CF89899A89019661F083E05E
:103B000090E09C838B8382E090E00E94DD1480E44F
:103B10000E94E51468CF8D819E812091B101309182
:103B2000B20182179307D1F46091B5017091B6018B
:103B3000AE014F5E5F4F8091B3019091B4010E943E
:103B400060280097E1F2789422E030E0F2013183BE
:103B50002083892B99F08DEF9FEFE1CE89288A2869
:103B60008B2869F6029758F6CE0168DE188A1F8600
:103B7000E8CF82E090E09C838B8335CF90E080E0BB
:103B8000CECE82E090E0F2019183808385EF9FEFBB
:103B9000C6CE8F929F92AF92BF92CF92DF92EF925A
:103BA000FF920F931F93CF93DF93EA018C01060FCF
:103BB000171FF8018181833098F082E090E09983AB
:103BC000888386EF9FEFDF91CF911F910F91FF9038
:103BD000EF90DF90CF90BF90AF909F908F9008951F
:103BE0008091090490910A04892B61F081E090E0B2
:103BF00020910B0430910C04232B11F490E080E011
:103C0000892B39F482E090E0998388838EEF9FEFCF
:103C1000DACF42DE882309F4E0C0F80181818130E7
:103C200009F496C0E8F0823099F420910B043091A9
:103C30000C04E0910904F0910A0490E080E041E076
:103C400050E02817390709F0BEC03CDA811117C0CF
:103C5000789481E090E09983888390E080E0B3CF0E
:103C600020910B0430910C04E0910904F0910A04B6
:103C700090E080E041E050E02817390741F481E00E
:103C800090E00E94DD1480E40E94EB14E1CF638198
:103C90007481672B11F05483438301967396ECCFA4
:103CA000E0910904F0910A04E00FF11F23813481AF
:103CB00022303105D9F4218932892F3F3F4FB1F4A9
:103CC000258136814091B1015091B2012417350709
:103CD00061F5AF014F5E5F4F6091B5017091B60124
:103CE0008091B3019091B4010E946028EFEFCE1A49
:103CF000DE0AEE0AFE0A0D5E1F4F40910B04509142
:103D00000C0470E060E0C416D506E606F70644F53C
:103D1000009731F27894892B09F49BCF82E090E0F0
:103D2000998388838DEF9FEF4ECFC114D104E104B6
:103D3000F104E1F622303105C8F6CF017FDDE091D4
:103D40000904F0910A04E00FF11F108A1786CECF04
:103D500010E000E090E080E0C12CD12C7601CDCFC6
:103D60000097C1F610E000E0812C912C540183E013
:103D7000E82EF12C1AC0E0910904F0910A04E00F3A
:103D8000F11F83819481029749F4F482E38282E0F7
:103D900090E00E94DD1480E40E94E514FFEF8F1A8A
:103DA0009F0AAF0ABF0A0D5E1F4F80910B049091CE
:103DB0000C04B0E0A0E088169906AA06BB06DCF267
:103DC00090E080E0A7CF638174816230710511F4C7
:103DD000548343830196739634CF82E090E09983B5
:103DE000888385EF9FEFEFCE0097B9F48FEFFB014B
:103DF00080832091BB013091BC0143E1429FC0010F
:103E0000439F900D1124E0910904F0910A04E80FFA
:103E1000F91F8285FB01818308950C94961488E034
:103E200090E0FA019183808390E080E00895109201
:103E3000080410920704E9E0F4E086E0DF011D9237
:103E40008A95E9F781EA9AE1909306048093050444
:103E50000895809105049091060408952F923F9251
:103E60004F925F926F927F928F929F92AF92BF928A
:103E7000CF92DF92EF92FF920F931F93CF93DF9336
:103E8000CDB7DEB72F970FB6F894DEBF0FBECDBF0C
:103E9000F894E0910704F09108043196F093080437
:103EA000E093070478944090090450900A04411468
:103EB000510409F40CC2E0910B04F0910C04EF2BB7
:103EC00009F405C22D8749875A876B877C879887B5
:103ED0008F831201B12CA12C10E000E080910B0423
:103EE00090910C04A816B90618F40115110529F1D2
:103EF000F894809107049091080401979093080426
:103F0000809307047894C8012F960FB6F894DEBF0B
:103F10000FBECDBFDF91CF911F910F91FF90EF901A
:103F2000DF90CF90BF90AF909F908F907F906F90D9
:103F30005F904F903F902F9008957101E418F5081D
:103F4000D10117968C91179781FD54C013968D91CE
:103F50009C911497039709F04DC015968D919C91F3
:103F6000EF81F8858E179F0709F044C0B50190E0F6
:103F700080E07ED48A832091090430910A043D8335
:103F80002C833D85332309F44CC04C815D81452B46
:103F900009F49AC180910B0490910C04A816B906FB
:103FA00008F092C1C501D8D88823E9F06C817D81E1
:103FB0006E0D7F1D7D836C83DB011F968D919C911F
:103FC000892B89F0D12CC12CF12CE12CAC81BD8145
:103FD00012968C9112978E151F0409F094F4509646
:103FE0001C921E921F972A81222321F0B50190E096
:103FF00080E040D43FEFA31AB30A43E1240E311C02
:104000006DCFAC81BD81ED91FC91EC0DFD1D8581E5
:1040100096810BD7BFEFEB1AFB0AEDE0CE0ED11C59
:10402000D5CFEC81FD81309709F44EC180910B040E
:1040300090910C04A816B90608F046C1EE0DFF1DBC
:10404000FF87EE87C50188D88B83882339F1AE8539
:10405000BF851F968D919C915097019621E01D96EA
:104060004D915C918417950709F020E02E83198209
:10407000712C10E000E0AE85BF8512968C91781609
:1040800008F45DC0EE85FF8587859089019665857A
:1040900076850E94C735908B8787A5CFB1E0BE8318
:1040A000E6CF992493946BC087D6F60196838583D7
:1040B00082C0D601ED90FC90B7E06B9EE00CF11C45
:1040C0001124F7016381748180818F3F61F121E0C8
:1040D00030E002C0220F331F8A95E2F7C901092E92
:1040E000000CAA0BBB0BFB014081518162817381E3
:1040F00084239523A623B72321E0892B8A2B8B2B9E
:1041000009F420E0D4012C93D70111968C91F6018B
:1041100023853485820F932F911D880E991E148656
:10412000138663949BC0418150E0C4010E941C36F9
:10413000EBCF998206EF1FEFC5C01982C3C0F9818A
:10414000F111A0CFEDE07E9E70011124AE85BF85F8
:10415000CD90DC90CE0CDF1C13D49D838C83BB816F
:10416000BB2309F49ECF81E0EE85FF85278530894A
:10417000232B09F080E0982E882309F458C0672D7E
:104180008E859F850DD8D60118969C938E93179790
:1041900061E070E0BED4EE85FF85218932892F3F32
:1041A000320709F481CFBC01C901CBD7D6011696DD
:1041B0009C938E931597D60115968D919C91169789
:1041C000009709F4B6CFEC81FD818E0F9F1F1A96E0
:1041D0009C938E931997AE85BF85ED91FC911197B5
:1041E000EE0EFF1EF70121853285148613861A967E
:1041F0008C91870DD9018D93711016C0EE85FF85C6
:10420000878184FF11C049855A856B857C85F901BA
:104210004183528363837483F70183859485049675
:10422000A80FB91F14861386F701B287A187D6019C
:1042300015968D919C911697892B09F443C0EE85B4
:10424000FF85258136818091B1019091B2012817B7
:10425000390779F019968D909C90612CD6011296B1
:104260008C911297681608F424CF1A969C928E921D
:104270001997BE81BB2309F460CF61E070E0F601BD
:104280008781908546D4D6011796ED90FC901897BB
:1042900015964D915C91E1E0F0E0BA81BB2311F0FD
:1042A000F0E0E0E00C811D819C01B5018827992791
:1042B0008E1B9F0B68D38C01892B21F0F601858121
:1042C0009681B3D57394D7CE0FEF1FEF8CCE10E04D
:1042D00000E00ECE2F923F924F925F926F927F92AC
:1042E0008F929F92AF92BF92CF92DF92EF92FF9206
:1042F0000F931F93CF93DF938091090490910A0449
:1043000010E000E0892BA9F0C7DA0AEF1FEF88233D
:1043100081F020900B0430900C04C0910904D091DE
:104320000A04D12CC12C10E000E02C143D04A9F4A7
:104330007894C801DF91CF911F910F91FF90EF907A
:10434000DF90CF90BF90AF909F908F907F906F90B5
:104350005F904F903F902F900895C6010E94AC1837
:10436000882309F18B819C810397E9F48F859889D3
:10437000892BC9F0B60190E080E07AD221E030E0EC
:10438000882311F030E020E044245524421A530AD7
:10439000B12CA12C912C812C8A818815190409F04B
:1043A00038F4188A1F864FEFC41AD40A6396BDCF1B
:1043B000E881F981EA0DFB1D85819681892BA1F1A8
:1043C00061E070E087819085A4D33C01D9D28C0153
:1043D000E881F981EA0DFB1D818592852581368171
:1043E000200F311FAC01421B530B9A0147815085AE
:1043F000421B530B70E060E00E942536E881F98192
:10440000EA0DFB1DE780F084458156819301B601DA
:10441000C201B9D28C01892B39F0E881F981EA0D0A
:10442000FB1D8581968101D55FEF851A950A8DE088
:10443000A80EB11CB1CF30CA789408952F923F9244
:104440004F925F926F927F929F92AF92BF92CF9264
:10445000DF92EF92FF920F931F93CF93DF9300D0E1
:1044600000D000D0CDB7DEB70091090410910A0446
:10447000992493940115110509F43EC0A0900B04F2
:10448000B0900C0409DA982E8823B1F110920A0436
:104490001092090410920C0410920B0410920D0457
:1044A00010920E048FEF9FEFDC018093BB0190937D
:1044B000BC01A093BD01B093BE0178947AD31E8352
:1044C0000D83C12CD12C7601C501B0E0A0E0898319
:1044D0009A83AB83BC8322242A94322C89819A81CB
:1044E000AB81BC81C816D906EA06FB06F4F0C80108
:1044F0009CD480E40E94EB14892D26960FB6F89484
:10450000DEBF0FBECDBFDF91CF911F910F91FF9006
:10451000EF90DF90CF90BF90AF909F907F906F9083
:104520005F904F903F902F900895AD81BE8115967A
:104530008D919C9116972091B1013091B201821713
:104540009307D1F451968D919C91E9D5ED81FE812F
:1045500080819181B12CA12C412C512C3201892BCD
:1045600089F5BFEFCB1ADB0AEB0AFB0AED81FE816E
:104570007396FE83ED83B2CFC114D104E104F1043C
:1045800029F7029718F7ED81FE81818992898F3F83
:10459000980709F024D5AD81BE8152963C922E92A7
:1045A0005197D4CF8A0D9B1DDC018D919C91009772
:1045B00009F03BD4BFEF4B1A5B0A6B0A7B0AEDE0B4
:1045C000AE0EB11CAD81BE818D919C91119712965A
:1045D0004C9150E070E060E04416550666067706A0
:1045E0000CF323D4BECFCF93DF93EA0127DF8111F1
:1045F00009C082E090E09983888385EF9FEFDF9187
:10460000CF91089581E090E00E94DD1481E090E078
:104610009983888390E080E0F2CF10DF1092060447
:1046200010920504089542E050E060E772E00C94B7
:10463000FB14FF920F931F93CF93DF938A01EC013A
:10464000C60FD71FF980B4D20897F816190671F073
:1046500068F082E090E0F801918380838EEF9FEF15
:10466000DF91CF911F910F91FF9008956C817D8113
:104670008E819F814B810E949217811108C082E038
:1046800090E0F8019183808384EF9FEFE9CFF98078
:104690000E948D174F2D50E0BE01685F7F4F0E9432
:1046A0001C3689810E94FC1781E090E0F80191831B
:1046B000808390E080E0D4CFDF92EF92FF920F935F
:1046C0001F93CF93DF938A01EC01C60FD71F0E947F
:1046D0008D177C01D9806CD2DD2059F0029721E042
:1046E00030E0D816190619F010F030E020E0232B46
:1046F00079F482E090E0F801918380838EEF9FEF60
:10470000DF91CF911F910F91FF90EF90DF9008956F
:10471000EF2841F482E090E0F8019183808384EFF8
:104720009FEFEECFF9800E948D174F2D50E0BE0114
:104730006E5F7F4F0E941C3689810E94FC1781E0CA
:1047400090E0F8019183808390E080E0D9CF83E10D
:1047500093E29093100480930F04089580910F04C6
:104760009091100408950895FC01118210829383A2
:1047700082830895DB011D921C92DC011296ED915B
:10478000FC9113977183608313967C936E931297B9
:104790000895FC0180819181DB018D939C93A08120
:1047A000B181109741F08D919C9191838083892BE9
:1047B00011F4F383E2830895FC0180819181DB0190
:1047C0008D939C93892B11F473836283718360832F
:1047D0000895FC0111821082938382830895CF9300
:1047E000DF9300D0CDB7DEB71A821982F894BE01EC
:1047F0006F5F7F4F86E194E0CCDF89819A810097DB
:1048000009F013D389819A81892B89F7BE016F5FE3
:104810007F4F8AE194E0BDDF89819A81009709F09A
:1048200004D389819A81892B89F778940F900F900E
:10483000DF91CF910895CF93DF9300D0CDB7DEB74E
:104840001A821982F894BE016F5F7F4F82E194E073
:10485000A0DF89819A81009709F0E7D289819A8146
:10486000892B89F778940F900F90DF91CF9108955D
:1048700081E0089590E080E00895EF92FF920F9319
:104880001F93CF93DF9300D0CDB7DEB71A82198282
:104890008091110407EF1FEF8823A1F1F894BE0166
:1048A0006F5F7F4F8AE194E074DF789489819A8109
:1048B000EE24E394F12C892B51F4F894BE016F5F40
:1048C0007F4F86E194E065DF7894F12CE12C8981BB
:1048D0009A810EEF1FEF0097A9F0FC0142815381EE
:1048E00064E070E072D68C01892B61F0F8946981E4
:1048F0007A81C701880F991F880F991F8A5E9B4F85
:104900005BDF7894C8010F900F90DF91CF911F91DA
:104910000F91FF90EF9008950F931F93CF93DF9324
:1049200000D000D0CDB7DEB71C821B821A8219825C
:104930008091110407EF1FEF8823C1F0AE014D5F96
:104940005F4F64E070E0CE010196B2D68C01892BF6
:1049500069F4E981FA818B819C8193838283F89445
:1049600069817A8182E194E005DF7894C8010F9033
:104970000F900F900F90DF91CF911F910F9108959D
:10498000B7D7049608958F929F92AF92BF92CF921D
:10499000DF92EF92FF920F931F93CF93DF9300D09C
:1049A000CDB7DEB71A821982BC016F5F7F4F6330CB
:1049B000710598F0AA24AA94BA2CC5010F900F9003
:1049C000DF91CF911F910F91FF90EF90DF90CF90EB
:1049D000BF90AF909F908F9008954115510551F36E
:1049E000480159018A016C01CBDF8815990511F73F
:1049F000E114F104F9F28E0D9F1DA816B906D0F24C
:104A0000809111048823F1F0F894B5016450710984
:104A10009701AE014F5F5F4FC8010496DED65C017F
:104A2000892B71F489819A81F80193838283C6016D
:104A3000880F991F880F991FB8018A5E9B4F9ADED5
:104A40007894BBCF87EFA82EBB24BA94B6CFAF9291
:104A5000BF92CF92DF92EF92FF920F931F93CF936B
:104A6000DF9300D0CDB7DEB71A821982892B09F007
:104A700047C06115710509F443C04115510509F49A
:104A80003FC02115310509F43BC001151105C1F1E5
:104A9000809111048823B9F179016A015B01F894CE
:104AA000BE016F5F7F4F82E194E073DE789489816D
:104AB0009A81009759F1DC0112966D917C91A801C1
:104AC0000496A4D68C01E981FA81D501ED93FC937B
:104AD000828193810496F6019183808351DFD7010F
:104AE0008D939C93C8010F900F90DF91CF911F91F0
:104AF0000F91FF90EF90DF90CF90BF90AF9008950F
:104B00000FEF1FEFEFCF07EF1FEFECCF0EEF1FEF11
:104B1000E9CFCF93DF93EC01672B71F4F2D68C17BA
:104B20009D0760F0E5D62496C80FD91FE4D68C0FF8
:104B30009D1FDF91CF910895E1D6F1CF90E080E005
:104B4000F8CF0F931F93CF93DF932091110421117E
:104B50002BC08B01EC0186E194E006DE8AE194E053
:104B600003DE82E194E000DE97D00097C1F4C9D65D
:104B700070E060E0CEDF4FEB51E062E070E081D1A9
:104B8000009769F48091BF019091C001CCD6B80123
:104B9000CE0101D5009719F421E020931104DF9193
:104BA000CF911F910F91089584EF9FEFF8CFA6C684
:104BB000A8C6CF93DF93A8D6EC01892B11F40FDEA2
:104BC0003ADECE01DF91CF910895CF93DF939CD64B
:104BD000EC01892B09F403DECE01DF91CF9108951A
:104BE0008091BF019091C0010895CF93DF93809190
:104BF0001104D0E0C0E08823D1F09AD6EC01892BD3
:104C0000B1F4EDDD18DE8091BF019091C001E7D1D4
:104C1000E8D2EC01892B59F486E194E0DADD8AE1EF
:104C200094E0D7DD82E194E0D4DD10921104CE014E
:104C3000DF91CF910895EF92FF920F931F93CF933F
:104C4000DF93EC017A018B010F5F1F4F0E9DA001D6
:104C50000F9D500D1E9D500D112470E060E00E94CC
:104C6000253690E080E0F0E0E0E02FEFE816F9066E
:104C700039F4DF91CF911F910F91FF90EF9008953C
:104C80001A8219822883309711F0D283C18301964A
:104C9000FE01C00FD11FEACFCF92DF92EF92FF92B9
:104CA0000F931F93CF93DF930AE615E00C7F43E049
:104CB00050E061EC71E087EC91E01AD481ECE82ED1
:104CC00081E0F82E97ECC92E91E0D92EC9E0D6E00C
:104CD000D7014D915D917D01F601619171916F0157
:104CE000198308835D834C835B834A837F836E8350
:104CF0009B012F5F3F4F249FC001259F900D349F44
:104D0000900D1124998788870115110511F0C801AC
:104D100092DF88859985080F191F2A96F7ECEF1600
:104D2000F1E0FF06A9F6E0E2F4E087E491E0DF01BC
:104D30009C011D9221503040E1F710921F04109207
:104D40001E04109228061092270610922C0610922C
:104D50002B0610922A061092290610922E06109207
:104D60002D061092300610922F06109232061092E5
:104D700031061092360610923506109234061092C3
:104D80003306109238061092370610923A061092A7
:104D90003906109206061092050610920806109227
:104DA000070690E080E0DF91CF911F910F91FF9077
:104DB000EF90DF90CF9008950097F1F0F894A7EC72
:104DC000B1E0E9E0F6E030E020E04D915D91481778
:104DD0005907A8F0428153814115510581F08AE0BD
:104DE000829FF001839FF00D1124E75FF94F8081CE
:104DF0009181009759F4789490E080E008952F5FB6
:104E00003F4F3A962330310501F7F5CFDC0111967B
:104E10006D917C917183608341505109538342832A
:104E2000FC012193CF0178940895009749F1DC01AA
:104E30008E91853041F4E0910706F0910806309795
:104E4000F9F0CD0109948530D8F4282F30E0F8949A
:104E50008FEF8C938AE0829FF001839FF00D1124E5
:104E6000E75FF94F8081918112969C938E93119701
:104E7000B183A08382819381019693838283789406
:104E80000895CF92DF92EF92FF920F931F93CF93EB
:104E9000DF939C0183E294E08C7F4115510509F476
:104EA0009BC02115310509F497C06115710509F4FE
:104EB00093C07A01AB01B9016D5F7F4F6C7F9B019D
:104EC0002F5F3F4F249F8001259F100D349F100DB1
:104ED0001124F8942091270630912806232B59F4A9
:104EE00020912F06309130062115310569F12017E8
:104EF000310708F058C02091310630913206232B3B
:104F000091F420912F0630913006820F931F20914B
:104F1000390630913A062115310509F441C02017B0
:104F2000310708F056C07894CFEFDFEF86EF9FEFA0
:104F3000F701D183C083DF91CF911F910F91FF9033
:104F4000EF90DF90CF900895C3E0D0E0C0901E04B2
:104F5000D0901F0424E431E02C193D0920173107BB
:104F600010F32AE02C9FF0012D9FF00D1124E75F34
:104F7000F94F91838083558344835383428377839E
:104F8000668311870087009709F055DE0C0D1D1D03
:104F900010931F0400931E04789490E080E0C8CF23
:104FA000C4E0D0E0D3CFC3E0D0E02AE02C9FF001F2
:104FB0002D9FF00D1124E75FF94F91838083558376
:104FC00044835383428377836683009729F333DED8
:104FD000E3CFC4E0D0E0E9CF8FEF9FEFACCF9C01EF
:104FE0000397029708F069C0F89484E09AE0482F8C
:104FF00050E0241735070CF44DC091E08AE0829F01
:10500000F001839FF00D1124E75FF94F11821082A8
:105010001582148213821282178216829923B1F1AB
:105020008091270690912806892BA9F420912F06BC
:10503000309130062115310571F080911E04909158
:105040001F04821B930B90931F0480931E041092E5
:10505000300610922F068091310690913206892BEE
:10506000A9F42091390630913A062115310571F0E5
:1050700080911E0490911F04821B930B90931F0438
:1050800080931E0410923A0610923906789490E0AC
:1050900080E00895949FF001959FF00D1124E75F43
:1050A000F94F40815181452B31F440855185452B85
:1050B00011F481509CCF90E0A1CF8FEF9FEF089526
:1050C0004115510549F1009739F16115710521F13B
:1050D000F8942091050630910606232BB9F420910F
:1050E000070630910806232B89F4909306068093D7
:1050F00005067093080660930706789425E030E073
:1051000090E080E0FA0131832083089578942FEFB6
:105110003FEF86EF9FEFF6CF8FEF9FEF0895059754
:1051200069F4F8941092060610920506109208068B
:1051300010920706789490E080E008958FEF9FEF3B
:1051400008956115710519F4F0E0E0E011C08530B3
:10515000910581F4E0910506F09106063097A1F3E0
:10516000CB0101960995009779F3FC0185E08193C5
:10517000CF0108959C01235031092230310520F7D9
:105180002AE0289FD001299FB00D1124A75FB94FB5
:105190002D913C911197232BB9F216962D913C91AC
:1051A00017972617370780F2F89412962D913C91A5
:1051B00013972115310529F0ED91FC911197309746
:1051C00011F47894C1CF4181528111965C934E9332
:1051D0002150310913963C932E9312978193789422
:1051E000C7CFE7E6F5E08EE9DF011D928A95E9F782
:1051F000E0E2F4E087E491E0DF019C011D922150A0
:105200003040E1F710921F0410921E04E9E0F6E02E
:1052100082E3DF011D928A95E9F7E5E0F6E084E09C
:10522000DF011D928A95E9F790E080E00895CF9321
:10523000DF93C091CD01D091CE01CF3FDC0759F46F
:1052400009D49093CE018093CD0197FF09C0D093EC
:10525000CE01C093CD0184EF9FEFDF91CF910895F0
:1052600090E080E0FACF8230910528F480933B06ED
:1052700090E080E008958FEF9FEF08954F925F9246
:105280006F927F92AF92BF92CF92DF92EF92FF9296
:105290000F931F93CF93DF9300D0CDB7DEB71A8261
:1052A0001982009709F479C06115710509F475C078
:1052B0002091CD013091CE0107EF1FEF2F3F3F4FDF
:1052C00009F445C06B015C01412C512C3201F12CD9
:1052D000E12C10E000E09E012F5F3F4FA6014E1928
:1052E0005F09B5016E0D7F1D8091CD019091CE01BA
:1052F00010D4892B09F04BC089819A81009741F421
:10530000E114F10429F420913B06222309F442C060
:10531000E80EF91EEC14FD04D0F480E8481684E889
:1053200058068EE16806710420F560E070E0CB015C
:105330000E9465322AE0420E511C611C711C0A3F1A
:105340004FEF140721F0043F8FEF1807A1F4C801B5
:105350000F900F90DF91CF911F910F91FF90EF90E1
:10536000DF90CF90BF90AF907F906F905F904F9005
:10537000089501EF1FEF81E090E0013F2FEF12074A
:1053800011F090E080E0892B09F4A5CFE0CF04EF85
:105390001FEFDDCF0AEF1FEFDACF0FEF1FEFD7CFF1
:1053A0004F925F926F927F92AF92BF92CF92DF92B5
:1053B000EF92FF920F931F93CF93DF9300D0CDB75F
:1053C000DEB71A821982009709F479C06115710558
:1053D00009F475C02091CD013091CE0107EF1FEF88
:1053E0002F3F3F4F09F445C06B015C01412C512C0C
:1053F0003201F12CE12C10E000E09E012F5F3F4FC5
:10540000A6014E195F09B5016E0D7F1D8091CD017A
:105410009091CE0134D3892B09F04BC089819A81B8
:10542000009741F4E114F10429F420913B06222372
:1054300009F442C0E80EF91EEC14FD04D0F480E437
:10544000481682E458068FE06806710420F560E093
:1054500070E0CB010E9465322AE0420E511C611CB3
:10546000711C0E3F4FEF140721F0043F8FEF180718
:10547000A1F4C8010F900F90DF91CF911F910F9170
:10548000FF90EF90DF90CF90BF90AF907F906F90A4
:105490005F904F90089502EF1FEF81E090E0023F90
:1054A0002FEF120711F090E080E0892B09F4A5CFCF
:1054B000E0CF04EF1FEFDDCF0EEF1FEFDACF0FEFDE
:1054C0001FEFD7CF8091CD019091CE018F3F9807EC
:1054D00049F0B8D2892B49F48FEF9FEF9093CE011A
:1054E0008093CD0190E080E0089584EF9FEF0895D0
:1054F000CF92DF92EF92FF920F931F93CF93DF93A0
:1055000021E04115510509F020E0415051092111D8
:105510002CC0DC01FB01D12CC12C21E022C03FEFCB
:10552000C31AD30A7D010D911D91E701EA80FB802A
:10553000E016F106A8F420813181E280F380F18247
:10554000E08233832283ED90FC9011979D012250DD
:105550003109E901F982E88211961C930E9320E04B
:105560003296C416D506D8F2D2CFDF91CF911F91D3
:105570000F91FF90EF90DF90CF900895FC01680F9E
:10558000791F90E080E0E617F70709F4089521916C
:10559000820F911DF8CF20913C06211113C047DEE8
:1055A000009791F410924206109241061092400624
:1055B00010923F0610923E0610923D0621E0209385
:1055C0003C06089584EF9FEF0895AF92BF92CF926B
:1055D000DF92EF92FF920F931F93CF93DF93009789
:1055E00009F460C04630510508F45CC020913C06C7
:1055F000C7EFDFEF222309F449C08C01060F171F04
:10560000F801C080D180C114D10409F44EC09601C4
:105610002A5F3F4F4217530708F447C07C0180912F
:1056200041069091420693838283B6016C5F7F4F5F
:105630005801A60EB71EC801A1DFF5019183808332
:1056400064E070E0C8011ADEEC01892BF9F481E016
:1056500090E009DEB601C801049610DEEC01892B4A
:1056600091F462E070E0C50109DEEC01892B59F488
:10567000C701DBDB80914106909142060196909331
:1056800042068093410690E080E0EDDDCE01DF919F
:10569000CF911F910F91FF90EF90DF90CF90BF902F
:1056A000AF900895CFEFDFEFF1CFC9EFDFEFEECF8F
:1056B0006F927F928F929F92AF92BF92CF92DF9222
:1056C000EF92FF920F931F93CF93DF9300D000D000
:1056D000CDB7DEB7009709F47AC04115510509F43A
:1056E00076C020913C0607EF1FEF222309F44DC03E
:1056F0003A017B015C0164E070E0CE01019650DE6E
:105700008C01892B09F041C009811A81011511050D
:1057100009F45AC0480186E0880E911CB701680D53
:10572000791D8091CF019091D0010BDD6C01009724
:1057300009F450C0A70170E060E00E94253689811D
:105740009A81AB81BC81EC0CFD1CF7018193919394
:10575000A193B1937F0181E090E085DDB801C7019D
:105760001FDE892B31F562E070E0C701800F911FC9
:1057700017DE8C01892BE9F490E080E074DDF501FF
:10578000D182C082F30191828082C8010F900F9074
:105790000F900F90DF91CF911F910F91FF90EF909D
:1057A000DF90CF90BF90AF909F908F907F906F9041
:1057B000089590E080E057DDF50111821082F30139
:1057C00011821082C60131DB09EF1FEFDECF0FEF30
:1057D0001FEFDBCF06EF1FEFD8CF0097A1F04115E9
:1057E000510589F02115310571F0F90136966E17D2
:1057F0007F0748F0DC012D933C93DA01ED93FC9395
:1058000090E080E008958FEF9FEF0895AF92BF92F0
:10581000CF92DF92EF92FF920F931F93CF93DF937C
:10582000009709F45FC04115510509F45BC065306C
:10583000710508F457C020913C06C7EFDFEF222323
:1058400091F1DC01CD90DC9011971296ED91FC91D5
:1058500096012A5F3F4FC9EFDFEF2617370719F58B
:10586000C0913D06D0913E06209749F521E030E0F9
:1058700030933E0620933D067A018C01F09340065A
:10588000E0933F065601B4E0AB0EB11CB50176DEE5
:105890000A0D1B1DF801208131818217930729F51C
:1058A000D701CD92DC92CE01DF91CF911F910F9164
:1058B000FF90EF90DF90CF90BF90AF900895209130
:1058C0003F06309140062F5F3F4FCCEFDFEFE217EE
:1058D000F30790F2CBEFDFEF2E173F0768F2D0E02F
:1058E000C0E0CACFCFEFDFEFDECFC3EFDFEFDBCF1C
:1058F00084E090E0089582E090E008958CEF9FEFBF
:10590000089580E290E008951092420610924106B8
:105910001092400610923F0610923E0610923D06ED
:1059200090E080E008959093D0018093CF01089596
:1059300080913C06882391F0C5DD009789F4109290
:105940004206109241061092400610923F061092B5
:105950003E0610923D0610923C06089590E080E0CD
:105960000895009749F06115710531F0FC0111822D
:105970001082FB01118210820895F3CF26E030E0FF
:1059800040E855E260E070E090E080E000C0892BE4
:1059900019F480E596E0E9C708951F920F920FB6BB
:1059A0000F9211242F933F934F935F936F937F93A5
:1059B0008F939F93AF93BF93EF93FF938FE89DEFE8
:1059C0009093850080938400B8D0FF91EF91BF91B0
:1059D000AF919F918F917F916F915F914F913F9187
:1059E0002F910F900FBE0F901F9018958FE89DEF8D
:1059F0009093850080938400AFE6B0E08C918E7F19
:105A00008C93E0E8F0E080818C7F8083E1E8F0E037
:105A10008081877E808380818460808380818C7F89
:105A200080838C9181608C930895EFE6F0E0808113
:105A300090819E7F90838170089581E008951092F7
:105A40004306089568EE73E080E090E03ED590E074
:105A500080E0089526E030E040E052EC61E070E044
:105A600090E080E094DF80E596E0B5D6892B21F0C8
:105A700080E596E0CAD6F7CF90E080E00895CF9217
:105A8000DF92EF92FF920F931F93CF93DF936B01FF
:105A90007A01E9011982188280E596E09CD6892B6B
:105AA00069F18601CC24C39482E0D82E809143060C
:105AB000811110C080E596E0A8D60297B9F7C09290
:105AC0004306F801D1928F018881998101969983CB
:105AD0008883ECCF888199818E159F0578F480E5C5
